{"abi":[{"type":"constructor","inputs":[{"name":"cardAddress","type":"address","internalType":"address"}],"stateMutability":"nonpayable"},{"type":"function","name":"cardContract","inputs":[],"outputs":[{"name":"","type":"address","internalType":"contract CreatureCard"}],"stateMutability":"view"},{"type":"function","name":"mintGift","inputs":[{"name":"to","type":"address","internalType":"address"},{"name":"attack","type":"uint8","internalType":"uint8"},{"name":"health","type":"uint8","internalType":"uint8"},{"name":"speed","type":"uint8","internalType":"uint8"},{"name":"abilityType","type":"uint8","internalType":"enum AbilityType"}],"outputs":[{"name":"","type":"uint256","internalType":"uint256"}],"stateMutability":"nonpayable"},{"type":"function","name":"mintPrice","inputs":[],"outputs":[{"name":"","type":"uint256","internalType":"uint256"}],"stateMutability":"view"},{"type":"function","name":"openPack","inputs":[],"outputs":[{"name":"tokenIds","type":"uint256[]","internalType":"uint256[]"}],"stateMutability":"payable"},{"type":"function","name":"owner","inputs":[],"outputs":[{"name":"","type":"address","internalType":"address"}],"stateMutability":"view"},{"type":"function","name":"packSize","inputs":[],"outputs":[{"name":"","type":"uint256","internalType":"uint256"}],"stateMutability":"view"},{"type":"function","name":"renounceOwnership","inputs":[],"outputs":[],"stateMutability":"nonpayable"},{"type":"function","name":"setMintPrice","inputs":[{"name":"newPrice","type":"uint256","internalType":"uint256"}],"outputs":[],"stateMutability":"nonpayable"},{"type":"function","name":"setPackSize","inputs":[{"name":"newSize","type":"uint256","internalType":"uint256"}],"outputs":[],"stateMutability":"nonpayable"},{"type":"function","name":"transferOwnership","inputs":[{"name":"newOwner","type":"address","internalType":"address"}],"outputs":[],"stateMutability":"nonpayable"},{"type":"function","name":"withdraw","inputs":[],"outputs":[],"stateMutability":"nonpayable"},{"type":"event","name":"MintPriceUpdated","inputs":[{"name":"newPrice","type":"uint256","indexed":false,"internalType":"uint256"}],"anonymous":false},{"type":"event","name":"OwnershipTransferred","inputs":[{"name":"previousOwner","type":"address","indexed":true,"internalType":"address"},{"name":"newOwner","type":"address","indexed":true,"internalType":"address"}],"anonymous":false},{"type":"event","name":"PackOpened","inputs":[{"name":"buyer","type":"address","indexed":true,"internalType":"address"},{"name":"tokenIds","type":"uint256[]","indexed":false,"internalType":"uint256[]"}],"anonymous":false},{"type":"error","name":"InsufficientPayment","inputs":[{"name":"sent","type":"uint256","internalType":"uint256"},{"name":"required","type":"uint256","internalType":"uint256"}]},{"type":"error","name":"OwnableInvalidOwner","inputs":[{"name":"owner","type":"address","internalType":"address"}]},{"type":"error","name":"OwnableUnauthorizedAccount","inputs":[{"name":"account","type":"address","internalType":"address"}]}],"bytecode":{"object":"0x60a0604052662386f26fc10000600155600360025534801561001f575f80fd5b50604051610a7f380380610a7f83398101604081905261003e916100cd565b338061006357604051631e4fbdf760e01b81525f600482015260240160405180910390fd5b61006c8161007e565b506001600160a01b03166080526100fa565b5f80546001600160a01b038381166001600160a01b0319831681178455604051919092169283917f8be0079c531659141344cd1fd0a4f28419497f9722a3daafe3b4186f6b6457e09190a35050565b5f602082840312156100dd575f80fd5b81516001600160a01b03811681146100f3575f80fd5b9392505050565b60805161095f6101205f395f81816101360152818161046c015261062b015261095f5ff3fe60806040526004361061009a575f3560e01c8063693bd2d011610062578063693bd2d014610125578063715018a61461017057806373bfb016146101845780638da5cb5b146101a3578063f2fde38b146101bf578063f4a0a528146101de575f80fd5b806306a628d41461009e5780630d1a0c62146100c65780633c4ea385146100e75780633ccfd60b146100fc5780636817c76c14610110575b5f80fd5b3480156100a9575f80fd5b506100b360025481565b6040519081526020015b60405180910390f35b3480156100d1575f80fd5b506100e56100e0366004610704565b6101fd565b005b6100ef610255565b6040516100bd919061071b565b348015610107575f80fd5b506100e56103f7565b34801561011b575f80fd5b506100b360015481565b348015610130575f80fd5b506101587f000000000000000000000000000000000000000000000000000000000000000081565b6040516001600160a01b0390911681526020016100bd565b34801561017b575f80fd5b506100e5610439565b34801561018f575f80fd5b506100b361019e366004610789565b61044c565b3480156101ae575f80fd5b505f546001600160a01b0316610158565b3480156101ca575f80fd5b506100e56101d93660046107f1565b6104f3565b3480156101e9575f80fd5b506100e56101f8366004610704565b61052d565b610205610570565b5f81116102505760405162461bcd60e51b815260206004820152601460248201527307061636b53697a65206d757374206265203e20360641b60448201526064015b60405180910390fd5b600255565b60605f6002546001546102689190610825565b9050803410156102945760405163b99e2ab760e01b815234600482015260248101829052604401610247565b60025467ffffffffffffffff8111156102af576102af61083c565b6040519080825280602002602001820160405280156102d8578160200160208202803683370190505b5091505f5b600254811015610371575f444233846040516020016103279493929190938452602084019290925260601b6bffffffffffffffffffffffff19166040830152605482015260740190565b604051602081830303815290604052805190602001205f1c905061034b338261059c565b84838151811061035d5761035d610850565b6020908102919091010152506001016102dd565b505f61037d8234610864565b905080156103b157604051339082156108fc029083905f818181858888f193505050501580156103af573d5f803e3d5ffd5b505b336001600160a01b03167fc58a896eeb87a6b02e0c222a9bcc47ece8e7cd118a12e398ca2b7f2866d4a613846040516103ea919061071b565b60405180910390a2505090565b6103ff610570565b5f80546040516001600160a01b03909116914780156108fc02929091818181858888f19350505050158015610436573d5f803e3d5ffd5b50565b610441610570565b61044a5f6106b5565b565b5f610455610570565b60405163732f7c0160e11b81526001600160a01b037f0000000000000000000000000000000000000000000000000000000000000000169063e65ef802906104a9908990899089908990899060040161088b565b6020604051808303815f875af11580156104c5573d5f803e3d5ffd5b505050506040513d601f19601f820116820180604052508101906104e991906108e0565b9695505050505050565b6104fb610570565b6001600160a01b03811661052457604051631e4fbdf760e01b81525f6004820152602401610247565b610436816106b5565b610535610570565b60018190556040518181527f525b762709cc2a983aec5ccdfd807a061f993c91090b5bcd7da92ca254976aaa9060200160405180910390a150565b5f546001600160a01b0316331461044a5760405163118cdaa760e01b8152336004820152602401610247565b5f806105a9605b846108f7565b6105b490600a610916565b90505f6105c6605b600886901c6108f7565b6105d190600a610916565b90505f6105e3605b601087901c6108f7565b6105ee90600a610916565b90505f6106006005601888901c6108f7565b600481111561061157610611610877565b60405163732f7c0160e11b81529091506001600160a01b037f0000000000000000000000000000000000000000000000000000000000000000169063e65ef80290610668908a90889088908890889060040161088b565b6020604051808303815f875af1158015610684573d5f803e3d5ffd5b505050506040513d601f19601f820116820180604052508101906106a891906108e0565b9450505050505b92915050565b5f80546001600160a01b038381166001600160a01b0319831681178455604051919092169283917f8be0079c531659141344cd1fd0a4f28419497f9722a3daafe3b4186f6b6457e09190a35050565b5f60208284031215610714575f80fd5b5035919050565b602080825282518282018190525f9190848201906040850190845b8181101561075257835183529284019291840191600101610736565b50909695505050505050565b80356001600160a01b0381168114610774575f80fd5b919050565b803560ff81168114610774575f80fd5b5f805f805f60a0868803121561079d575f80fd5b6107a68661075e565b94506107b460208701610779565b93506107c260408701610779565b92506107d060608701610779565b91506080860135600581106107e3575f80fd5b809150509295509295909350565b5f60208284031215610801575f80fd5b61080a8261075e565b9392505050565b634e487b7160e01b5f52601160045260245ffd5b80820281158282048414176106af576106af610811565b634e487b7160e01b5f52604160045260245ffd5b634e487b7160e01b5f52603260045260245ffd5b818103818111156106af576106af610811565b634e487b7160e01b5f52602160045260245ffd5b6001600160a01b038616815260ff858116602083015284811660408301528316606082015260a08101600583106108d057634e487b7160e01b5f52602160045260245ffd5b8260808301529695505050505050565b5f602082840312156108f0575f80fd5b5051919050565b5f8261091157634e487b7160e01b5f52601260045260245ffd5b500690565b808201808211156106af576106af61081156fea2646970667358221220eeec69b85c82d7070c040235ebb041a75e5d637e7959073879e8f775fbf1e95d64736f6c63430008180033","linkReferences":{}},"methodIdentifiers":{"cardContract()":"693bd2d0","mintGift(address,uint8,uint8,uint8,uint8)":"73bfb016","mintPrice()":"6817c76c","openPack()":"3c4ea385","owner()":"8da5cb5b","packSize()":"06a628d4","renounceOwnership()":"715018a6","setMintPrice(uint256)":"f4a0a528","setPackSize(uint256)":"0d1a0c62","transferOwnership(address)":"f2fde38b","withdraw()":"3ccfd60b"},"id":38}