{"abi":[{"type":"constructor","inputs":[{"name":"cardAddress","type":"address","internalType":"address"}],"stateMutability":"nonpayable"},{"type":"function","name":"battle","inputs":[{"name":"myTokenId","type":"uint256","internalType":"uint256"},{"name":"opponentTokenId","type":"uint256","internalType":"uint256"}],"outputs":[{"name":"battleId","type":"uint256","internalType":"uint256"}],"stateMutability":"nonpayable"},{"type":"function","name":"battles","inputs":[{"name":"","type":"uint256","internalType":"uint256"}],"outputs":[{"name":"challengerTokenId","type":"uint256","internalType":"uint256"},{"name":"opponentTokenId","type":"uint256","internalType":"uint256"},{"name":"challenger","type":"address","internalType":"address"},{"name":"winner","type":"uint256","internalType":"uint256"},{"name":"loser","type":"uint256","internalType":"uint256"},{"name":"timestamp","type":"uint256","internalType":"uint256"},{"name":"rounds","type":"uint8","internalType":"uint8"}],"stateMutability":"view"},{"type":"function","name":"cardContract","inputs":[],"outputs":[{"name":"","type":"address","internalType":"contract CreatureCard"}],"stateMutability":"view"},{"type":"function","name":"getBattle","inputs":[{"name":"battleId","type":"uint256","internalType":"uint256"}],"outputs":[{"name":"","type":"tuple","internalType":"struct Battle","components":[{"name":"challengerTokenId","type":"uint256","internalType":"uint256"},{"name":"opponentTokenId","type":"uint256","internalType":"uint256"},{"name":"challenger","type":"address","internalType":"address"},{"name":"winner","type":"uint256","internalType":"uint256"},{"name":"loser","type":"uint256","internalType":"uint256"},{"name":"timestamp","type":"uint256","internalType":"uint256"},{"name":"rounds","type":"uint8","internalType":"uint8"}]}],"stateMutability":"view"},{"type":"function","name":"owner","inputs":[],"outputs":[{"name":"","type":"address","internalType":"address"}],"stateMutability":"view"},{"type":"function","name":"renounceOwnership","inputs":[],"outputs":[],"stateMutability":"nonpayable"},{"type":"function","name":"totalBattles","inputs":[],"outputs":[{"name":"","type":"uint256","internalType":"uint256"}],"stateMutability":"view"},{"type":"function","name":"transferOwnership","inputs":[{"name":"newOwner","type":"address","internalType":"address"}],"outputs":[],"stateMutability":"nonpayable"},{"type":"event","name":"BattleResolved","inputs":[{"name":"battleId","type":"uint256","indexed":true,"internalType":"uint256"},{"name":"winnerToken","type":"uint256","indexed":false,"internalType":"uint256"},{"name":"loserToken","type":"uint256","indexed":false,"internalType":"uint256"},{"name":"rounds","type":"uint8","indexed":false,"internalType":"uint8"}],"anonymous":false},{"type":"event","name":"OwnershipTransferred","inputs":[{"name":"previousOwner","type":"address","indexed":true,"internalType":"address"},{"name":"newOwner","type":"address","indexed":true,"internalType":"address"}],"anonymous":false},{"type":"error","name":"NotCardOwner","inputs":[{"name":"tokenId","type":"uint256","internalType":"uint256"}]},{"type":"error","name":"OwnableInvalidOwner","inputs":[{"name":"owner","type":"address","internalType":"address"}]},{"type":"error","name":"OwnableUnauthorizedAccount","inputs":[{"name":"account","type":"address","internalType":"address"}]}],"bytecode":{"object":"0x60a060405234801561000f575f80fd5b50604051610e3b380380610e3b83398101604081905261002e916100bd565b338061005357604051631e4fbdf760e01b81525f600482015260240160405180910390fd5b61005c8161006e565b506001600160a01b03166080526100ea565b5f80546001600160a01b038381166001600160a01b0319831681178455604051919092169283917f8be0079c531659141344cd1fd0a4f28419497f9722a3daafe3b4186f6b6457e09190a35050565b5f602082840312156100cd575f80fd5b81516001600160a01b03811681146100e3575f80fd5b9392505050565b608051610d166101255f395f81816101500152818161025101528181610301015281816103960152818161054701526105d40152610d165ff3fe608060405234801561000f575f80fd5b5060043610610085575f3560e01c8063715018a611610058578063715018a6146101fa5780638da5cb5b14610204578063bf1dfb8a14610214578063f2fde38b1461021c575f80fd5b80632a0c522114610089578063606d2e96146100af578063693bd2d01461014b5780636dd0ce7a1461018a575b5f80fd5b61009c610097366004610a0e565b61022f565b6040519081526020015b60405180910390f35b6101056100bd366004610a2e565b600160208190525f9182526040909120805491810154600282015460038301546004840154600585015460069095015493946001600160a01b03909316939192909160ff1687565b6040805197885260208801969096526001600160a01b03909416948601949094526060850191909152608084015260a083019190915260ff1660c082015260e0016100a6565b6101727f000000000000000000000000000000000000000000000000000000000000000081565b6040516001600160a01b0390911681526020016100a6565b61019d610198366004610a2e565b610686565b6040516100a6919081518152602080830151908201526040808301516001600160a01b031690820152606080830151908201526080808301519082015260a0808301519082015260c09182015160ff169181019190915260e00190565b610202610738565b005b5f546001600160a01b0316610172565b60025461009c565b61020261022a366004610a59565b61074b565b6040516331a9108f60e11b8152600481018390525f9033906001600160a01b037f00000000000000000000000000000000000000000000000000000000000000001690636352211e90602401602060405180830381865afa158015610296573d5f803e3d5ffd5b505050506040513d601f19601f820116820180604052508101906102ba9190610a7b565b6001600160a01b0316146102e95760405163c9df97cb60e01b8152600481018490526024015b60405180910390fd5b604051637b30396560e01b8152600481018490525f907f00000000000000000000000000000000000000000000000000000000000000006001600160a01b031690637b3039659060240161010060405180830381865afa15801561034f573d5f803e3d5ffd5b505050506040513d601f19601f820116820180604052508101906103739190610acc565b604051637b30396560e01b8152600481018590529091505f906001600160a01b037f00000000000000000000000000000000000000000000000000000000000000001690637b3039659060240161010060405180830381865afa1580156103dc573d5f803e3d5ffd5b505050506040513d601f19601f820116820180604052508101906104009190610acc565b905060025f815461041090610bab565b91829055506040805144602082015290810182905233606090811b6bffffffffffffffffffffffff1916908201529093505f90607401604051602081830303815290604052805190602001205f1c90505f805f61047089878a8888610788565b9250925092506040518060e001604052808a8152602001898152602001336001600160a01b031681526020018481526020018381526020014281526020018260ff1681525060015f8981526020019081526020015f205f820151815f0155602082015181600101556040820151816002015f6101000a8154816001600160a01b0302191690836001600160a01b03160217905550606082015181600301556080820151816004015560a0820151816005015560c0820151816006015f6101000a81548160ff021916908360ff1602179055509050507f00000000000000000000000000000000000000000000000000000000000000006001600160a01b0316639e6611a5846040518263ffffffff1660e01b815260040161059391815260200190565b5f604051808303815f87803b1580156105aa575f80fd5b505af11580156105bc573d5f803e3d5ffd5b50506040516330113a1f60e11b8152600481018590527f00000000000000000000000000000000000000000000000000000000000000006001600160a01b03169250636022743e91506024015f604051808303815f87803b15801561061f575f80fd5b505af1158015610631573d5f803e3d5ffd5b5050604080518681526020810186905260ff85168183015290518a93507f707fc23cb1a33d3a415103c076a0373f7d124edd33d20b7a76ea6123b5ffb48192509081900360600190a250505050505092915050565b6106cb6040518060e001604052805f81526020015f81526020015f6001600160a01b031681526020015f81526020015f81526020015f81526020015f60ff1681525090565b505f90815260016020818152604092839020835160e08101855281548152928101549183019190915260028101546001600160a01b0316928201929092526003820154606082015260048201546080820152600582015460a082015260069091015460ff1660c082015290565b610740610993565b6107495f6109bf565b565b610753610993565b6001600160a01b03811661077c57604051631e4fbdf760e01b81525f60048201526024016102e0565b610785816109bf565b50565b5f805f80876020015160ff16600a6107a09190610bc3565b90505f866020015160ff16600a6107b79190610bc3565b90505f876040015160ff168a6040015160ff16101590505f93505b5f831380156107e057505f82135b80156107ef575060328460ff16105b1561096b575f878560405160200161081e92919091825260f81b6001600160f81b031916602082015260210190565b60408051601f19818403018152919052805160209091012090505f610844602883610bf4565b905082156108d2575f606461085a836050610c07565b8e51610869919060ff16610bc3565b6108739190610c1a565b90508a60600151600481111561088b5761088b610c2d565b8d6060015160048111156108a1576108a1610c2d565b036108c05760646108b3826073610c41565b6108bd9190610c70565b90505b6108ca8186610c9c565b945050610954565b5f60646108e0836050610c07565b8c516108ef919060ff16610bc3565b6108f99190610c1a565b90508c60600151600481111561091157610911610c2d565b8b60600151600481111561092757610927610c2d565b03610946576064610939826073610c41565b6109439190610c70565b90505b6109508187610c9c565b9550505b9115918561096181610cc2565b96505050506107d2565b8183131561097e578a9550889450610985565b8895508a94505b505050955095509592505050565b5f546001600160a01b031633146107495760405163118cdaa760e01b81523360048201526024016102e0565b5f80546001600160a01b038381166001600160a01b0319831681178455604051919092169283917f8be0079c531659141344cd1fd0a4f28419497f9722a3daafe3b4186f6b6457e09190a35050565b5f8060408385031215610a1f575f80fd5b50508035926020909101359150565b5f60208284031215610a3e575f80fd5b5035919050565b6001600160a01b0381168114610785575f80fd5b5f60208284031215610a69575f80fd5b8135610a7481610a45565b9392505050565b5f60208284031215610a8b575f80fd5b8151610a7481610a45565b805160ff81168114610aa6575f80fd5b919050565b805160058110610aa6575f80fd5b805163ffffffff81168114610aa6575f80fd5b5f610100808385031215610ade575f80fd5b6040519081019067ffffffffffffffff82118183101715610b0d57634e487b7160e01b5f52604160045260245ffd5b81604052610b1a84610a96565b8152610b2860208501610a96565b6020820152610b3960408501610a96565b6040820152610b4a60608501610aab565b6060820152610b5b60808501610ab9565b6080820152610b6c60a08501610ab9565b60a0820152610b7d60c08501610a96565b60c082015260e084015160e0820152809250505092915050565b634e487b7160e01b5f52601160045260245ffd5b5f60018201610bbc57610bbc610b97565b5060010190565b8082028115828204841417610bda57610bda610b97565b92915050565b634e487b7160e01b5f52601260045260245ffd5b5f82610c0257610c02610be0565b500690565b80820180821115610bda57610bda610b97565b5f82610c2857610c28610be0565b500490565b634e487b7160e01b5f52602160045260245ffd5b8082025f8212600160ff1b84141615610c5c57610c5c610b97565b8181058314821517610bda57610bda610b97565b5f82610c7e57610c7e610be0565b600160ff1b82145f1984141615610c9757610c97610b97565b500590565b8181035f831280158383131683831282161715610cbb57610cbb610b97565b5092915050565b5f60ff821660ff8103610cd757610cd7610b97565b6001019291505056fea26469706673582212207251f94377ecdbd1aeada75be48ac38431bc20fa644b7ca0df0fd2c51eaca39c64736f6c63430008180033","linkReferences":{}},"methodIdentifiers":{"battle(uint256,uint256)":"2a0c5221","battles(uint256)":"606d2e96","cardContract()":"693bd2d0","getBattle(uint256)":"6dd0ce7a","owner()":"8da5cb5b","renounceOwnership()":"715018a6","totalBattles()":"bf1dfb8a","transferOwnership(address)":"f2fde38b"},"id":35}