{"abi":[{"type":"constructor","inputs":[{"name":"cardAddress","type":"address","internalType":"address"}],"stateMutability":"nonpayable"},{"type":"function","name":"acceptAndResolve","inputs":[{"name":"battleId","type":"uint256","internalType":"uint256"},{"name":"myTokenId","type":"uint256","internalType":"uint256"}],"outputs":[],"stateMutability":"nonpayable"},{"type":"function","name":"battles","inputs":[{"name":"","type":"uint256","internalType":"uint256"}],"outputs":[{"name":"challengerTokenId","type":"uint256","internalType":"uint256"},{"name":"opponentTokenId","type":"uint256","internalType":"uint256"},{"name":"challenger","type":"address","internalType":"address"},{"name":"opponent","type":"address","internalType":"address"},{"name":"winner","type":"uint256","internalType":"uint256"},{"name":"loser","type":"uint256","internalType":"uint256"},{"name":"timestamp","type":"uint256","internalType":"uint256"},{"name":"rounds","type":"uint8","internalType":"uint8"}],"stateMutability":"view"},{"type":"function","name":"cardContract","inputs":[],"outputs":[{"name":"","type":"address","internalType":"contract CreatureCard"}],"stateMutability":"view"},{"type":"function","name":"challenge","inputs":[{"name":"myTokenId","type":"uint256","internalType":"uint256"},{"name":"opponentTokenId","type":"uint256","internalType":"uint256"}],"outputs":[{"name":"battleId","type":"uint256","internalType":"uint256"}],"stateMutability":"nonpayable"},{"type":"function","name":"getBattle","inputs":[{"name":"battleId","type":"uint256","internalType":"uint256"}],"outputs":[{"name":"","type":"tuple","internalType":"struct Battle","components":[{"name":"challengerTokenId","type":"uint256","internalType":"uint256"},{"name":"opponentTokenId","type":"uint256","internalType":"uint256"},{"name":"challenger","type":"address","internalType":"address"},{"name":"opponent","type":"address","internalType":"address"},{"name":"winner","type":"uint256","internalType":"uint256"},{"name":"loser","type":"uint256","internalType":"uint256"},{"name":"timestamp","type":"uint256","internalType":"uint256"},{"name":"rounds","type":"uint8","internalType":"uint8"}]}],"stateMutability":"view"},{"type":"function","name":"owner","inputs":[],"outputs":[{"name":"","type":"address","internalType":"address"}],"stateMutability":"view"},{"type":"function","name":"pendingChallenge","inputs":[{"name":"","type":"uint256","internalType":"uint256"}],"outputs":[{"name":"","type":"uint256","internalType":"uint256"}],"stateMutability":"view"},{"type":"function","name":"renounceOwnership","inputs":[],"outputs":[],"stateMutability":"nonpayable"},{"type":"function","name":"totalBattles","inputs":[],"outputs":[{"name":"","type":"uint256","internalType":"uint256"}],"stateMutability":"view"},{"type":"function","name":"transferOwnership","inputs":[{"name":"newOwner","type":"address","internalType":"address"}],"outputs":[],"stateMutability":"nonpayable"},{"type":"event","name":"BattleCreated","inputs":[{"name":"battleId","type":"uint256","indexed":true,"internalType":"uint256"},{"name":"challengerToken","type":"uint256","indexed":false,"internalType":"uint256"},{"name":"opponentToken","type":"uint256","indexed":false,"internalType":"uint256"}],"anonymous":false},{"type":"event","name":"BattleResolved","inputs":[{"name":"battleId","type":"uint256","indexed":true,"internalType":"uint256"},{"name":"winnerToken","type":"uint256","indexed":false,"internalType":"uint256"},{"name":"loserToken","type":"uint256","indexed":false,"internalType":"uint256"},{"name":"rounds","type":"uint8","indexed":false,"internalType":"uint8"}],"anonymous":false},{"type":"event","name":"OwnershipTransferred","inputs":[{"name":"previousOwner","type":"address","indexed":true,"internalType":"address"},{"name":"newOwner","type":"address","indexed":true,"internalType":"address"}],"anonymous":false},{"type":"error","name":"BattleAlreadyResolved","inputs":[{"name":"battleId","type":"uint256","internalType":"uint256"}]},{"type":"error","name":"BattleDoesNotExist","inputs":[{"name":"battleId","type":"uint256","internalType":"uint256"}]},{"type":"error","name":"CardAlreadyInBattle","inputs":[{"name":"tokenId","type":"uint256","internalType":"uint256"}]},{"type":"error","name":"NotCardOwner","inputs":[{"name":"tokenId","type":"uint256","internalType":"uint256"}]},{"type":"error","name":"OwnableInvalidOwner","inputs":[{"name":"owner","type":"address","internalType":"address"}]},{"type":"error","name":"OwnableUnauthorizedAccount","inputs":[{"name":"account","type":"address","internalType":"address"}]},{"type":"error","name":"WrongOpponentCard","inputs":[{"name":"expected","type":"uint256","internalType":"uint256"},{"name":"got","type":"uint256","internalType":"uint256"}]}],"bytecode":{"object":"0x60a060405234801561000f575f80fd5b5060405161113338038061113383398101604081905261002e916100bd565b338061005357604051631e4fbdf760e01b81525f600482015260240160405180910390fd5b61005c8161006e565b506001600160a01b03166080526100ea565b5f80546001600160a01b038381166001600160a01b0319831681178455604051919092169283917f8be0079c531659141344cd1fd0a4f28419497f9722a3daafe3b4186f6b6457e09190a35050565b5f602082840312156100cd575f80fd5b81516001600160a01b03811681146100e3575f80fd5b9392505050565b6080516110006101335f395f818161018901528181610319015281816103fb015281816104760152818161058b015281816105fe015281816106e401526107f101526110005ff3fe608060405234801561000f575f80fd5b506004361061009b575f3560e01c8063715018a611610063578063715018a6146102475780638da5cb5b1461024f578063a24daa091461025f578063bf1dfb8a1461027e578063f2fde38b14610286575f80fd5b8063281995221461009f5780632e414890146100b4578063606d2e96146100da578063693bd2d0146101845780636dd0ce7a146101c3575b5f80fd5b6100b26100ad366004610d0d565b610299565b005b6100c76100c2366004610d0d565b6106c2565b6040519081526020015b60405180910390f35b61013a6100e8366004610d2d565b600160208190525f91825260409091208054918101546002820154600383015460048401546005850154600686015460079096015494956001600160a01b039485169594909316939192909160ff1688565b6040805198895260208901979097526001600160a01b0395861696880196909652939092166060860152608085015260a084015260c083015260ff1660e0820152610100016100d1565b6101ab7f000000000000000000000000000000000000000000000000000000000000000081565b6040516001600160a01b0390911681526020016100d1565b6101d66101d1366004610d2d565b610965565b6040516100d191905f610100820190508251825260208301516020830152604083015160018060a01b03808216604085015280606086015116606085015250506080830151608083015260a083015160a083015260c083015160c083015260ff60e08401511660e083015292915050565b6100b2610a37565b5f546001600160a01b03166101ab565b6100c761026d366004610d2d565b60036020525f908152604090205481565b6002546100c7565b6100b2610294366004610d58565b610a4a565b5f82815260016020526040812060068101549091036102d357604051638c0abe8d60e01b8152600481018490526024015b60405180910390fd5b6004810154156102f95760405163e14e61a560e01b8152600481018490526024016102ca565b6040516331a9108f60e11b81526004810183905233906001600160a01b037f00000000000000000000000000000000000000000000000000000000000000001690636352211e90602401602060405180830381865afa15801561035e573d5f803e3d5ffd5b505050506040513d601f19601f820116820180604052508101906103829190610d7a565b6001600160a01b0316146103ac5760405163c9df97cb60e01b8152600481018390526024016102ca565b818160010154146103e0576001810154604051636e812f3b60e11b81526004810191909152602481018390526044016102ca565b8054604051637b30396560e01b81525f916001600160a01b037f00000000000000000000000000000000000000000000000000000000000000001691637b303965916104329160040190815260200190565b60e060405180830381865afa15801561044d573d5f803e3d5ffd5b505050506040513d601f19601f820116820180604052508101906104719190610dcb565b90505f7f00000000000000000000000000000000000000000000000000000000000000006001600160a01b0316637b30396584600101546040518263ffffffff1660e01b81526004016104c691815260200190565b60e060405180830381865afa1580156104e1573d5f803e3d5ffd5b505050506040513d601f19601f820116820180604052508101906105059190610dcb565b604080514460208201529081018790529091505f90606001604051602081830303815290604052805190602001205f1c90505f805f61054e875f01548789600101548888610a87565b60048a810184905560058b0183905560078b01805460ff191660ff8416179055604051639e6611a560e01b815290810184905292955090935091507f00000000000000000000000000000000000000000000000000000000000000006001600160a01b031690639e6611a5906024015f604051808303815f87803b1580156105d4575f80fd5b505af11580156105e6573d5f803e3d5ffd5b50506040516330113a1f60e11b8152600481018590527f00000000000000000000000000000000000000000000000000000000000000006001600160a01b03169250636022743e91506024015f604051808303815f87803b158015610649575f80fd5b505af115801561065b573d5f803e3d5ffd5b505088545f90815260036020908152604080832092909255815187815290810186905260ff85168183015290518c93507f707fc23cb1a33d3a415103c076a0373f7d124edd33d20b7a76ea6123b5ffb48192509081900360600190a2505050505050505050565b6040516331a9108f60e11b8152600481018390525f9033906001600160a01b037f00000000000000000000000000000000000000000000000000000000000000001690636352211e90602401602060405180830381865afa158015610729573d5f803e3d5ffd5b505050506040513d601f19601f8201168201806040525081019061074d9190610d7a565b6001600160a01b0316146107775760405163c9df97cb60e01b8152600481018490526024016102ca565b5f83815260036020526040902054156107a65760405163e4a1f5b560e01b8152600481018490526024016102ca565b60025f81546107b490610e95565b9182905550604080516101008101825285815260208101859052338183015290516331a9108f60e11b8152600481018590529192509060608201907f00000000000000000000000000000000000000000000000000000000000000006001600160a01b031690636352211e90602401602060405180830381865afa15801561083e573d5f803e3d5ffd5b505050506040513d601f19601f820116820180604052508101906108629190610d7a565b6001600160a01b0390811682525f602080840182905260408085018390524260608087019190915260809586018490528784526001808452828520885181558885015191810191909155878301516002820180546001600160a01b03199081169289169290921790559188015160038083018054909416919097161790915594860151600486015560a0860151600586015560c0860151600686015560e0909501516007909401805460ff191660ff90951694909417909355868152908252829020839055815185815290810184905282917fd62c968428ee35efcd585201e478fee8104bb7facd8559d3dd58fd7fb83e6586910160405180910390a292915050565b6109ba6040518061010001604052805f81526020015f81526020015f6001600160a01b031681526020015f6001600160a01b031681526020015f81526020015f81526020015f81526020015f60ff1681525090565b505f9081526001602081815260409283902083516101008101855281548152928101549183019190915260028101546001600160a01b03908116938301939093526003810154909216606082015260048201546080820152600582015460a0820152600682015460c082015260079091015460ff1660e082015290565b610a3f610c92565b610a485f610cbe565b565b610a52610c92565b6001600160a01b038116610a7b57604051631e4fbdf760e01b81525f60048201526024016102ca565b610a8481610cbe565b50565b5f805f80876020015160ff16600a610a9f9190610ead565b90505f866020015160ff16600a610ab69190610ead565b90505f876040015160ff168a6040015160ff16101590505f93505b5f83138015610adf57505f82135b8015610aee575060328460ff16105b15610c6a575f8785604051602001610b1d92919091825260f81b6001600160f81b031916602082015260210190565b60408051601f19818403018152919052805160209091012090505f610b43602883610ede565b90508215610bd1575f6064610b59836050610ef1565b8e51610b68919060ff16610ead565b610b729190610f04565b90508a606001516004811115610b8a57610b8a610f17565b8d606001516004811115610ba057610ba0610f17565b03610bbf576064610bb2826073610f2b565b610bbc9190610f5a565b90505b610bc98186610f86565b945050610c53565b5f6064610bdf836050610ef1565b8c51610bee919060ff16610ead565b610bf89190610f04565b90508c606001516004811115610c1057610c10610f17565b8b606001516004811115610c2657610c26610f17565b03610c45576064610c38826073610f2b565b610c429190610f5a565b90505b610c4f8187610f86565b9550505b91159185610c6081610fac565b9650505050610ad1565b81831315610c7d578a9550889450610c84565b8895508a94505b505050955095509592505050565b5f546001600160a01b03163314610a485760405163118cdaa760e01b81523360048201526024016102ca565b5f80546001600160a01b038381166001600160a01b0319831681178455604051919092169283917f8be0079c531659141344cd1fd0a4f28419497f9722a3daafe3b4186f6b6457e09190a35050565b5f8060408385031215610d1e575f80fd5b50508035926020909101359150565b5f60208284031215610d3d575f80fd5b5035919050565b6001600160a01b0381168114610a84575f80fd5b5f60208284031215610d68575f80fd5b8135610d7381610d44565b9392505050565b5f60208284031215610d8a575f80fd5b8151610d7381610d44565b805160ff81168114610da5575f80fd5b919050565b805160058110610da5575f80fd5b805163ffffffff81168114610da5575f80fd5b5f60e08284031215610ddb575f80fd5b60405160e0810181811067ffffffffffffffff82111715610e0a57634e487b7160e01b5f52604160045260245ffd5b604052610e1683610d95565b8152610e2460208401610d95565b6020820152610e3560408401610d95565b6040820152610e4660608401610daa565b6060820152610e5760808401610db8565b6080820152610e6860a08401610db8565b60a082015260c083015160c08201528091505092915050565b634e487b7160e01b5f52601160045260245ffd5b5f60018201610ea657610ea6610e81565b5060010190565b8082028115828204841417610ec457610ec4610e81565b92915050565b634e487b7160e01b5f52601260045260245ffd5b5f82610eec57610eec610eca565b500690565b80820180821115610ec457610ec4610e81565b5f82610f1257610f12610eca565b500490565b634e487b7160e01b5f52602160045260245ffd5b8082025f8212600160ff1b84141615610f4657610f46610e81565b8181058314821517610ec457610ec4610e81565b5f82610f6857610f68610eca565b600160ff1b82145f1984141615610f8157610f81610e81565b500590565b8181035f831280158383131683831282161715610fa557610fa5610e81565b5092915050565b5f60ff821660ff8103610fc157610fc1610e81565b6001019291505056fea2646970667358221220353c26a094bc1d396461835ba051ea5536f9978841dadc07b89b47ddbff8786164736f6c63430008180033","linkReferences":{}},"methodIdentifiers":{"acceptAndResolve(uint256,uint256)":"28199522","battles(uint256)":"606d2e96","cardContract()":"693bd2d0","challenge(uint256,uint256)":"2e414890","getBattle(uint256)":"6dd0ce7a","owner()":"8da5cb5b","pendingChallenge(uint256)":"a24daa09","renounceOwnership()":"715018a6","totalBattles()":"bf1dfb8a","transferOwnership(address)":"f2fde38b"},"id":37}