{"abi":[{"type":"constructor","inputs":[{"name":"cardAddress","type":"address","internalType":"address"}],"stateMutability":"nonpayable"},{"type":"function","name":"cardContract","inputs":[],"outputs":[{"name":"","type":"address","internalType":"contract CreatureCard"}],"stateMutability":"view"},{"type":"function","name":"mintGift","inputs":[{"name":"to","type":"address","internalType":"address"},{"name":"attack","type":"uint8","internalType":"uint8"},{"name":"health","type":"uint8","internalType":"uint8"},{"name":"speed","type":"uint8","internalType":"uint8"},{"name":"abilityType","type":"uint8","internalType":"enum AbilityType"}],"outputs":[{"name":"","type":"uint256","internalType":"uint256"}],"stateMutability":"nonpayable"},{"type":"function","name":"openElementalPack","inputs":[{"name":"ability","type":"uint8","internalType":"enum AbilityType"}],"outputs":[{"name":"tokenIds","type":"uint256[]","internalType":"uint256[]"}],"stateMutability":"payable"},{"type":"function","name":"openPack","inputs":[{"name":"rarity","type":"uint8","internalType":"enum PackRarity"}],"outputs":[{"name":"tokenIds","type":"uint256[]","internalType":"uint256[]"}],"stateMutability":"payable"},{"type":"function","name":"owner","inputs":[],"outputs":[{"name":"","type":"address","internalType":"address"}],"stateMutability":"view"},{"type":"function","name":"packs","inputs":[{"name":"","type":"uint8","internalType":"enum PackRarity"}],"outputs":[{"name":"price","type":"uint256","internalType":"uint256"},{"name":"count","type":"uint8","internalType":"uint8"},{"name":"statMin","type":"uint8","internalType":"uint8"},{"name":"statMax","type":"uint8","internalType":"uint8"},{"name":"fixedAbility","type":"bool","internalType":"bool"},{"name":"forcedAbility","type":"uint8","internalType":"enum AbilityType"},{"name":"name","type":"string","internalType":"string"}],"stateMutability":"view"},{"type":"function","name":"renounceOwnership","inputs":[],"outputs":[],"stateMutability":"nonpayable"},{"type":"function","name":"transferOwnership","inputs":[{"name":"newOwner","type":"address","internalType":"address"}],"outputs":[],"stateMutability":"nonpayable"},{"type":"function","name":"updatePackPrice","inputs":[{"name":"rarity","type":"uint8","internalType":"enum PackRarity"},{"name":"newPrice","type":"uint256","internalType":"uint256"}],"outputs":[],"stateMutability":"nonpayable"},{"type":"function","name":"withdraw","inputs":[],"outputs":[],"stateMutability":"nonpayable"},{"type":"event","name":"OwnershipTransferred","inputs":[{"name":"previousOwner","type":"address","indexed":true,"internalType":"address"},{"name":"newOwner","type":"address","indexed":true,"internalType":"address"}],"anonymous":false},{"type":"event","name":"PackOpened","inputs":[{"name":"buyer","type":"address","indexed":true,"internalType":"address"},{"name":"rarity","type":"uint8","indexed":false,"internalType":"enum PackRarity"},{"name":"tokenIds","type":"uint256[]","indexed":false,"internalType":"uint256[]"}],"anonymous":false},{"type":"error","name":"InsufficientPayment","inputs":[{"name":"sent","type":"uint256","internalType":"uint256"},{"name":"required","type":"uint256","internalType":"uint256"}]},{"type":"error","name":"InvalidPackRarity","inputs":[]},{"type":"error","name":"OwnableInvalidOwner","inputs":[{"name":"owner","type":"address","internalType":"address"}]},{"type":"error","name":"OwnableUnauthorizedAccount","inputs":[{"name":"account","type":"address","internalType":"address"}]}],"bytecode":{"object":"0x60a060405234801562000010575f80fd5b50604051620014b6380380620014b68339810160408190526200003391620005e6565b33806200005957604051631e4fbdf760e01b81525f600482015260240160405180910390fd5b620000648162000597565b506001600160a01b03811660809081526040805160e081018252662386f26fc10000815260036020808301918252600a8385019081526041606085019081525f96850187815260a086018881528751808901909852600b88526a436f6d6d6f6e205061636b60a81b8886015260c0870197909752968052600190925283517fa6eef7e35abe7026729641147f7915573c7e97b47efa546f5f6e3230263bcb4990815592517fa6eef7e35abe7026729641147f7915573c7e97b47efa546f5f6e3230263bcb4a8054925193519751151563010000000263ff0000001960ff998a1662010000021663ffff000019958a166101000261ffff1990951699909316989098179290921792909216919091179490941780855592519193909260ff60201b1916640100000000836004811115620001a157620001a162000615565b021790555060c08201516002820190620001bc9082620006c7565b50506040805160e081018252666a94d74f43000081526003602080830191825260288385019081526055606085019081525f6080860181815260a087018281528851808a01909952600989526852617265205061636b60b81b8987015260c0880198909852600191829052935284517fcc69885fda6bcc1a4ace058b4a62bf5e179ea78fd58a1ccd71c22cc9b688792f90815593517fcc69885fda6bcc1a4ace058b4a62bf5e179ea78fd58a1ccd71c22cc9b68879308054935192519451151563010000000263ff0000001960ff96871662010000021663ffff0000199487166101000261ffff199096169690931695909517939093179190911617919091178082559351929450909260ff60201b1916640100000000836004811115620002e857620002e862000615565b021790555060c08201516002820190620003039082620006c7565b50506040805160e08101825267011c37937e080000815260026020808301828152604b8486019081526064606086019081525f6080870181815260a088018281528951808b01909a52600e8a526d4c6567656e64617279205061636b60901b8a88015260c0890199909952959052600190935284517fd9d16d34ffb15ba3a3d852f0d403e2ce1d691fb54de27ac87cd2f993f3ec330f90815591517fd9d16d34ffb15ba3a3d852f0d403e2ce1d691fb54de27ac87cd2f993f3ec33108054925194519551151563010000000263ff0000001960ff97881662010000021663ffff0000199688166101000261ffff199095169790931696909617929092179390931692909217929092178082559351929450909260ff60201b191664010000000083600481111562000438576200043862000615565b021790555060c08201516002820190620004539082620006c7565b50506040805160e08101825266470de4df820000815260046020820152601991810191909152604b606082015260016080820152905060a081015f815260408051808201909152600e81526d456c656d656e74616c205061636b60901b6020828101919091529091015260015f600380811115620004d557620004d562000615565b815260208082019290925260409081015f2083518155918301516001830180549285015160608601516080870151151563010000000263ff0000001960ff92831662010000021663ffff0000199383166101000261ffff1990971692909516919091179490941716919091179190911780825560a0840151919060ff60201b191664010000000083600481111562000571576200057162000615565b021790555060c082015160028201906200058c9082620006c7565b509050505062000793565b5f80546001600160a01b038381166001600160a01b0319831681178455604051919092169283917f8be0079c531659141344cd1fd0a4f28419497f9722a3daafe3b4186f6b6457e09190a35050565b5f60208284031215620005f7575f80fd5b81516001600160a01b03811681146200060e575f80fd5b9392505050565b634e487b7160e01b5f52602160045260245ffd5b634e487b7160e01b5f52604160045260245ffd5b600181811c908216806200065257607f821691505b6020821081036200067157634e487b7160e01b5f52602260045260245ffd5b50919050565b601f821115620006c257805f5260205f20601f840160051c810160208510156200069e5750805b601f840160051c820191505b81811015620006bf575f8155600101620006aa565b50505b505050565b81516001600160401b03811115620006e357620006e362000629565b620006fb81620006f484546200063d565b8462000677565b602080601f83116001811462000731575f8415620007195750858301515b5f19600386901b1c1916600185901b1785556200078b565b5f85815260208120601f198616915b82811015620007615788860151825594840194600190910190840162000740565b50858210156200077f57878501515f19600388901b60f8161c191681555b505060018460011b0185555b505050505050565b608051610cfd620007b95f395f818160e30152818161033801526108020152610cfd5ff3fe60806040526004361061008f575f3560e01c80638da5cb5b116100575780638da5cb5b1461015e578063a2f9bc671461017a578063cf6853921461018d578063d5b989fc146101ac578063f2fde38b146101de575f80fd5b80633ccfd60b146100935780635c312c0d146100a9578063693bd2d0146100d2578063715018a61461011d57806373bfb01614610131575b5f80fd5b34801561009e575f80fd5b506100a76101fd565b005b6100bc6100b736600461095c565b61023f565b6040516100c991906109b6565b60405180910390f35b3480156100dd575f80fd5b506101057f000000000000000000000000000000000000000000000000000000000000000081565b6040516001600160a01b0390911681526020016100c9565b348015610128575f80fd5b506100a7610305565b34801561013c575f80fd5b5061015061014b3660046109ee565b610318565b6040519081526020016100c9565b348015610169575f80fd5b505f546001600160a01b0316610105565b6100bc610188366004610a5d565b6103bf565b348015610198575f80fd5b506100a76101a7366004610a76565b6104ae565b3480156101b7575f80fd5b506101cb6101c6366004610a5d565b6104f1565b6040516100c99796959493929190610ac6565b3480156101e9575f80fd5b506100a76101f8366004610b53565b6105c6565b610205610600565b5f80546040516001600160a01b03909116914780156108fc02929091818181858888f1935050505015801561023c573d5f803e3d5ffd5b50565b60035f5260016020527f7dfe757ecd65cbd7922a9c0161e935dd7fdbcc0e999689c7d31633896b1fc60b8054606091903410156102a057805460405163b99e2ab760e01b815234600482015260248101919091526044015b60405180910390fd5b6102ad338285600161062c565b91506102bb815f01546108b7565b336001600160a01b03167f8ec9a35d54af30762858796fa12f9026597e6e747373346e2d9e7a78d9f1252b6003846040516102f7929190610b6c565b60405180910390a250919050565b61030d610600565b6103165f6108fa565b565b5f610321610600565b60405163732f7c0160e11b81526001600160a01b037f0000000000000000000000000000000000000000000000000000000000000000169063e65ef802906103759089908990899089908990600401610b9c565b6020604051808303815f875af1158015610391573d5f803e3d5ffd5b505050506040513d601f19601f820116820180604052508101906103b59190610bd2565b9695505050505050565b606060038260038111156103d5576103d5610a9e565b036103f3576040516332b8157d60e21b815260040160405180910390fd5b5f60015f84600381111561040957610409610a9e565b600381111561041a5761041a610a9e565b81526020019081526020015f209050805f015434101561045957805460405163b99e2ab760e01b81523460048201526024810191909152604401610297565b61046533825f8061062c565b9150610473815f01546108b7565b336001600160a01b03167f8ec9a35d54af30762858796fa12f9026597e6e747373346e2d9e7a78d9f1252b84846040516102f7929190610b6c565b6104b6610600565b8060015f8460038111156104cc576104cc610a9e565b60038111156104dd576104dd610a9e565b815260208101919091526040015f20555050565b600160208190525f918252604090912080549181015460028201805460ff80841694610100850482169462010000810483169463010000008204841694640100000000909204909316929061054590610be9565b80601f016020809104026020016040519081016040528092919081815260200182805461057190610be9565b80156105bc5780601f10610593576101008083540402835291602001916105bc565b820191905f5260205f20905b81548152906001019060200180831161059f57829003601f168201915b5050505050905087565b6105ce610600565b6001600160a01b0381166105f757604051631e4fbdf760e01b81525f6004820152602401610297565b61023c816108fa565b5f546001600160a01b031633146103165760405163118cdaa760e01b8152336004820152602401610297565b600183015460609060ff1667ffffffffffffffff81111561064f5761064f610c21565b604051908082528060200260200182016040528015610678578160200160208202803683370190505b5060018501549091505f9061069d9060ff610100820481169162010000900416610c49565b90505f5b600186015460ff168110156108ad576001860154604080514460208201524291810191909152606089811b6bffffffffffffffffffffffff1916908201526074810183905261010090910460f81b6001600160f81b03191660948201525f9060950160408051601f19818403018152919052805160209091012090505f610729846001610c68565b6107369060ff1683610c81565b600189015461074d9190610100900460ff16610c68565b90505f61075b856001610c68565b61076c9060ff16600885901c610c81565b60018a01546107839190610100900460ff16610c68565b90505f610791866001610c68565b6107a29060ff16601086901c610c81565b60018b01546107b99190610100900460ff16610c68565b90505f886107e6576107d06005601887901c610c81565b60048111156107e1576107e1610a9e565b6107e8565b895b60405163732f7c0160e11b81529091506001600160a01b037f0000000000000000000000000000000000000000000000000000000000000000169063e65ef8029061083f908f908890889088908890600401610b9c565b6020604051808303815f875af115801561085b573d5f803e3d5ffd5b505050506040513d601f19601f8201168201806040525081019061087f9190610bd2565b88878151811061089157610891610ca0565b60209081029190910101525050600190930192506106a1915050565b5050949350505050565b5f6108c28234610cb4565b905080156108f657604051339082156108fc029083905f818181858888f193505050501580156108f4573d5f803e3d5ffd5b505b5050565b5f80546001600160a01b038381166001600160a01b0319831681178455604051919092169283917f8be0079c531659141344cd1fd0a4f28419497f9722a3daafe3b4186f6b6457e09190a35050565b803560058110610957575f80fd5b919050565b5f6020828403121561096c575f80fd5b61097582610949565b9392505050565b5f815180845260208085019450602084015f5b838110156109ab5781518752958201959082019060010161098f565b509495945050505050565b602081525f610975602083018461097c565b80356001600160a01b0381168114610957575f80fd5b803560ff81168114610957575f80fd5b5f805f805f60a08688031215610a02575f80fd5b610a0b866109c8565b9450610a19602087016109de565b9350610a27604087016109de565b9250610a35606087016109de565b9150610a4360808701610949565b90509295509295909350565b803560048110610957575f80fd5b5f60208284031215610a6d575f80fd5b61097582610a4f565b5f8060408385031215610a87575f80fd5b610a9083610a4f565b946020939093013593505050565b634e487b7160e01b5f52602160045260245ffd5b60058110610ac257610ac2610a9e565b9052565b8781525f602060ff8916602084015260ff8816604084015260ff871660608401528515156080840152610afc60a0840186610ab2565b60e060c084015283518060e08501525f5b81811015610b2a5785810183015185820161010001528201610b0d565b5061010091505f82828601015281601f19601f8301168501019250505098975050505050505050565b5f60208284031215610b63575f80fd5b610975826109c8565b5f60048410610b7d57610b7d610a9e565b83825260406020830152610b94604083018461097c565b949350505050565b6001600160a01b038616815260ff858116602083015284811660408301528316606082015260a081016103b56080830184610ab2565b5f60208284031215610be2575f80fd5b5051919050565b600181811c90821680610bfd57607f821691505b602082108103610c1b57634e487b7160e01b5f52602260045260245ffd5b50919050565b634e487b7160e01b5f52604160045260245ffd5b634e487b7160e01b5f52601160045260245ffd5b60ff8281168282160390811115610c6257610c62610c35565b92915050565b60ff8181168382160190811115610c6257610c62610c35565b5f82610c9b57634e487b7160e01b5f52601260045260245ffd5b500690565b634e487b7160e01b5f52603260045260245ffd5b81810381811115610c6257610c62610c3556fea2646970667358221220b5ae10661ccd072d9d5df00e5da59807b1d4a3cb43eb8a42874dbd3a182d9aad64736f6c63430008180033","linkReferences":{}},"methodIdentifiers":{"cardContract()":"693bd2d0","mintGift(address,uint8,uint8,uint8,uint8)":"73bfb016","openElementalPack(uint8)":"5c312c0d","openPack(uint8)":"a2f9bc67","owner()":"8da5cb5b","packs(uint8)":"d5b989fc","renounceOwnership()":"715018a6","transferOwnership(address)":"f2fde38b","updatePackPrice(uint8,uint256)":"cf685392","withdraw()":"3ccfd60b"},"id":38}