{"abi":[{"type":"constructor","inputs":[{"name":"baseURI","type":"string","internalType":"string"}],"stateMutability":"nonpayable"},{"type":"function","name":"STAT_CAP","inputs":[],"outputs":[{"name":"","type":"uint8","internalType":"uint8"}],"stateMutability":"view"},{"type":"function","name":"approve","inputs":[{"name":"to","type":"address","internalType":"address"},{"name":"tokenId","type":"uint256","internalType":"uint256"}],"outputs":[],"stateMutability":"nonpayable"},{"type":"function","name":"balanceOf","inputs":[{"name":"owner","type":"address","internalType":"address"}],"outputs":[{"name":"","type":"uint256","internalType":"uint256"}],"stateMutability":"view"},{"type":"function","name":"battleEngineContract","inputs":[],"outputs":[{"name":"","type":"address","internalType":"address"}],"stateMutability":"view"},{"type":"function","name":"getApproved","inputs":[{"name":"tokenId","type":"uint256","internalType":"uint256"}],"outputs":[{"name":"","type":"address","internalType":"address"}],"stateMutability":"view"},{"type":"function","name":"getStats","inputs":[{"name":"tokenId","type":"uint256","internalType":"uint256"}],"outputs":[{"name":"","type":"tuple","internalType":"struct CardStats","components":[{"name":"attack","type":"uint8","internalType":"uint8"},{"name":"health","type":"uint8","internalType":"uint8"},{"name":"speed","type":"uint8","internalType":"uint8"},{"name":"abilityType","type":"uint8","internalType":"enum AbilityType"},{"name":"wins","type":"uint32","internalType":"uint32"},{"name":"losses","type":"uint32","internalType":"uint32"},{"name":"level","type":"uint8","internalType":"uint8"},{"name":"mintedAt","type":"uint256","internalType":"uint256"}]}],"stateMutability":"view"},{"type":"function","name":"isApprovedForAll","inputs":[{"name":"owner","type":"address","internalType":"address"},{"name":"operator","type":"address","internalType":"address"}],"outputs":[{"name":"","type":"bool","internalType":"bool"}],"stateMutability":"view"},{"type":"function","name":"mintCard","inputs":[{"name":"to","type":"address","internalType":"address"},{"name":"attack","type":"uint8","internalType":"uint8"},{"name":"health","type":"uint8","internalType":"uint8"},{"name":"speed","type":"uint8","internalType":"uint8"},{"name":"abilityType","type":"uint8","internalType":"enum AbilityType"}],"outputs":[{"name":"tokenId","type":"uint256","internalType":"uint256"}],"stateMutability":"nonpayable"},{"type":"function","name":"minterContract","inputs":[],"outputs":[{"name":"","type":"address","internalType":"address"}],"stateMutability":"view"},{"type":"function","name":"name","inputs":[],"outputs":[{"name":"","type":"string","internalType":"string"}],"stateMutability":"view"},{"type":"function","name":"owner","inputs":[],"outputs":[{"name":"","type":"address","internalType":"address"}],"stateMutability":"view"},{"type":"function","name":"ownerOf","inputs":[{"name":"tokenId","type":"uint256","internalType":"uint256"}],"outputs":[{"name":"","type":"address","internalType":"address"}],"stateMutability":"view"},{"type":"function","name":"recordLoss","inputs":[{"name":"tokenId","type":"uint256","internalType":"uint256"}],"outputs":[],"stateMutability":"nonpayable"},{"type":"function","name":"recordWin","inputs":[{"name":"tokenId","type":"uint256","internalType":"uint256"}],"outputs":[],"stateMutability":"nonpayable"},{"type":"function","name":"renounceOwnership","inputs":[],"outputs":[],"stateMutability":"nonpayable"},{"type":"function","name":"safeTransferFrom","inputs":[{"name":"from","type":"address","internalType":"address"},{"name":"to","type":"address","internalType":"address"},{"name":"tokenId","type":"uint256","internalType":"uint256"}],"outputs":[],"stateMutability":"nonpayable"},{"type":"function","name":"safeTransferFrom","inputs":[{"name":"from","type":"address","internalType":"address"},{"name":"to","type":"address","internalType":"address"},{"name":"tokenId","type":"uint256","internalType":"uint256"},{"name":"data","type":"bytes","internalType":"bytes"}],"outputs":[],"stateMutability":"nonpayable"},{"type":"function","name":"setApprovalForAll","inputs":[{"name":"operator","type":"address","internalType":"address"},{"name":"approved","type":"bool","internalType":"bool"}],"outputs":[],"stateMutability":"nonpayable"},{"type":"function","name":"setBattleEngineContract","inputs":[{"name":"engine","type":"address","internalType":"address"}],"outputs":[],"stateMutability":"nonpayable"},{"type":"function","name":"setMinterContract","inputs":[{"name":"minter","type":"address","internalType":"address"}],"outputs":[],"stateMutability":"nonpayable"},{"type":"function","name":"supportsInterface","inputs":[{"name":"interfaceId","type":"bytes4","internalType":"bytes4"}],"outputs":[{"name":"","type":"bool","internalType":"bool"}],"stateMutability":"view"},{"type":"function","name":"symbol","inputs":[],"outputs":[{"name":"","type":"string","internalType":"string"}],"stateMutability":"view"},{"type":"function","name":"tokenURI","inputs":[{"name":"tokenId","type":"uint256","internalType":"uint256"}],"outputs":[{"name":"","type":"string","internalType":"string"}],"stateMutability":"view"},{"type":"function","name":"totalSupply","inputs":[],"outputs":[{"name":"","type":"uint256","internalType":"uint256"}],"stateMutability":"view"},{"type":"function","name":"transferFrom","inputs":[{"name":"from","type":"address","internalType":"address"},{"name":"to","type":"address","internalType":"address"},{"name":"tokenId","type":"uint256","internalType":"uint256"}],"outputs":[],"stateMutability":"nonpayable"},{"type":"function","name":"transferOwnership","inputs":[{"name":"newOwner","type":"address","internalType":"address"}],"outputs":[],"stateMutability":"nonpayable"},{"type":"event","name":"Approval","inputs":[{"name":"owner","type":"address","indexed":true,"internalType":"address"},{"name":"approved","type":"address","indexed":true,"internalType":"address"},{"name":"tokenId","type":"uint256","indexed":true,"internalType":"uint256"}],"anonymous":false},{"type":"event","name":"ApprovalForAll","inputs":[{"name":"owner","type":"address","indexed":true,"internalType":"address"},{"name":"operator","type":"address","indexed":true,"internalType":"address"},{"name":"approved","type":"bool","indexed":false,"internalType":"bool"}],"anonymous":false},{"type":"event","name":"CardMinted","inputs":[{"name":"to","type":"address","indexed":true,"internalType":"address"},{"name":"tokenId","type":"uint256","indexed":true,"internalType":"uint256"},{"name":"stats","type":"tuple","indexed":false,"internalType":"struct CardStats","components":[{"name":"attack","type":"uint8","internalType":"uint8"},{"name":"health","type":"uint8","internalType":"uint8"},{"name":"speed","type":"uint8","internalType":"uint8"},{"name":"abilityType","type":"uint8","internalType":"enum AbilityType"},{"name":"wins","type":"uint32","internalType":"uint32"},{"name":"losses","type":"uint32","internalType":"uint32"},{"name":"level","type":"uint8","internalType":"uint8"},{"name":"mintedAt","type":"uint256","internalType":"uint256"}]}],"anonymous":false},{"type":"event","name":"OwnershipTransferred","inputs":[{"name":"previousOwner","type":"address","indexed":true,"internalType":"address"},{"name":"newOwner","type":"address","indexed":true,"internalType":"address"}],"anonymous":false},{"type":"event","name":"StatUpgraded","inputs":[{"name":"tokenId","type":"uint256","indexed":true,"internalType":"uint256"},{"name":"attack","type":"uint8","indexed":false,"internalType":"uint8"},{"name":"health","type":"uint8","indexed":false,"internalType":"uint8"},{"name":"speed","type":"uint8","indexed":false,"internalType":"uint8"},{"name":"level","type":"uint8","indexed":false,"internalType":"uint8"}],"anonymous":false},{"type":"event","name":"StatsUpdated","inputs":[{"name":"tokenId","type":"uint256","indexed":true,"internalType":"uint256"},{"name":"wins","type":"uint32","indexed":false,"internalType":"uint32"},{"name":"losses","type":"uint32","indexed":false,"internalType":"uint32"}],"anonymous":false},{"type":"event","name":"Transfer","inputs":[{"name":"from","type":"address","indexed":true,"internalType":"address"},{"name":"to","type":"address","indexed":true,"internalType":"address"},{"name":"tokenId","type":"uint256","indexed":true,"internalType":"uint256"}],"anonymous":false},{"type":"error","name":"ERC721IncorrectOwner","inputs":[{"name":"sender","type":"address","internalType":"address"},{"name":"tokenId","type":"uint256","internalType":"uint256"},{"name":"owner","type":"address","internalType":"address"}]},{"type":"error","name":"ERC721InsufficientApproval","inputs":[{"name":"operator","type":"address","internalType":"address"},{"name":"tokenId","type":"uint256","internalType":"uint256"}]},{"type":"error","name":"ERC721InvalidApprover","inputs":[{"name":"approver","type":"address","internalType":"address"}]},{"type":"error","name":"ERC721InvalidOperator","inputs":[{"name":"operator","type":"address","internalType":"address"}]},{"type":"error","name":"ERC721InvalidOwner","inputs":[{"name":"owner","type":"address","internalType":"address"}]},{"type":"error","name":"ERC721InvalidReceiver","inputs":[{"name":"receiver","type":"address","internalType":"address"}]},{"type":"error","name":"ERC721InvalidSender","inputs":[{"name":"sender","type":"address","internalType":"address"}]},{"type":"error","name":"ERC721NonexistentToken","inputs":[{"name":"tokenId","type":"uint256","internalType":"uint256"}]},{"type":"error","name":"OnlyBattleEngine","inputs":[]},{"type":"error","name":"OnlyMinter","inputs":[]},{"type":"error","name":"OwnableInvalidOwner","inputs":[{"name":"owner","type":"address","internalType":"address"}]},{"type":"error","name":"OwnableUnauthorizedAccount","inputs":[{"name":"account","type":"address","internalType":"address"}]},{"type":"error","name":"TokenDoesNotExist","inputs":[{"name":"tokenId","type":"uint256","internalType":"uint256"}]}],"bytecode":{"object":"0x608060405234801562000010575f80fd5b50604051620021653803806200216583398101604081905262000033916200014d565b336040518060400160405280600c81526020016b10dc99585d1d5c9950d85c9960a21b8152506040518060400160405280600481526020016321a92a2960e11b815250815f9081620000869190620002a5565b506001620000958282620002a5565b5050506001600160a01b038116620000c657604051631e4fbdf760e01b81525f600482015260240160405180910390fd5b620000d181620000e8565b50600b620000e08282620002a5565b505062000371565b600680546001600160a01b038381166001600160a01b0319831681179093556040519116919082907f8be0079c531659141344cd1fd0a4f28419497f9722a3daafe3b4186f6b6457e0905f90a35050565b634e487b7160e01b5f52604160045260245ffd5b5f60208083850312156200015f575f80fd5b82516001600160401b038082111562000176575f80fd5b818501915085601f8301126200018a575f80fd5b8151818111156200019f576200019f62000139565b604051601f8201601f19908116603f01168101908382118183101715620001ca57620001ca62000139565b816040528281528886848701011115620001e2575f80fd5b5f93505b82841015620002055784840186015181850187015292850192620001e6565b5f86848301015280965050505050505092915050565b600181811c908216806200023057607f821691505b6020821081036200024f57634e487b7160e01b5f52602260045260245ffd5b50919050565b601f821115620002a057805f5260205f20601f840160051c810160208510156200027c5750805b601f840160051c820191505b818110156200029d575f815560010162000288565b50505b505050565b81516001600160401b03811115620002c157620002c162000139565b620002d981620002d284546200021b565b8462000255565b602080601f8311600181146200030f575f8415620002f75750858301515b5f19600386901b1c1916600185901b17855562000369565b5f85815260208120601f198616915b828110156200033f578886015182559484019460019091019084016200031e565b50858210156200035d57878501515f19600388901b60f8161c191681555b505060018460011b0185555b505050505050565b611de6806200037f5f395ff3fe608060405234801561000f575f80fd5b5060043610610187575f3560e01c80637d07514b116100d95780639e6611a511610093578063c87b56dd1161006e578063c87b56dd14610359578063e65ef8021461036c578063e985e9c51461037f578063f2fde38b14610392575f80fd5b80639e6611a514610320578063a22cb46514610333578063b88d4fde14610346575f80fd5b80637d07514b146102b45780637eb78dfa146102ce5780638da5cb5b146102e15780638f8b16a6146102f257806392f002331461030557806395d89b4114610318575f80fd5b806338478ae7116101445780636352211e1161011f5780636352211e1461026657806370a0823114610279578063715018a61461028c5780637b30396514610294575f80fd5b806338478ae71461022d57806342842e0e146102405780636022743e14610253575f80fd5b806301ffc9a71461018b57806306fdde03146101b3578063081812fc146101c8578063095ea7b3146101f357806318160ddd1461020857806323b872dd1461021a575b5f80fd5b61019e610199366004611710565b6103a5565b60405190151581526020015b60405180910390f35b6101bb6103f6565b6040516101aa919061177f565b6101db6101d6366004611791565b610485565b6040516001600160a01b0390911681526020016101aa565b6102066102013660046117c3565b6104ac565b005b6007545b6040519081526020016101aa565b6102066102283660046117eb565b6104bb565b61020661023b366004611824565b610549565b61020661024e3660046117eb565b610573565b610206610261366004611791565b610592565b6101db610274366004611791565b61068d565b61020c610287366004611824565b610697565b6102066106dc565b6102a76102a2366004611791565b6106ef565b6040516101aa9190611871565b6102bc60c881565b60405160ff90911681526020016101aa565b6102066102dc366004611824565b610812565b6006546001600160a01b03166101db565b600a546101db906001600160a01b031681565b6009546101db906001600160a01b031681565b6101bb61083c565b61020661032e366004611791565b61084b565b6102066103413660046118f8565b610c7d565b610206610354366004611945565b610c88565b6101bb610367366004611791565b610ca0565b61020c61037a366004611a2a565b610cff565b61019e61038d366004611a92565b610ef3565b6102066103a0366004611824565b610f20565b5f6001600160e01b031982166380ac58cd60e01b14806103d557506001600160e01b03198216635b5e139f60e01b145b806103f057506301ffc9a760e01b6001600160e01b03198316145b92915050565b60605f805461040490611ac3565b80601f016020809104026020016040519081016040528092919081815260200182805461043090611ac3565b801561047b5780601f106104525761010080835404028352916020019161047b565b820191905f5260205f20905b81548152906001019060200180831161045e57829003601f168201915b5050505050905090565b5f61048f82610f5d565b505f828152600460205260409020546001600160a01b03166103f0565b6104b7828233610f95565b5050565b6001600160a01b0382166104e957604051633250574960e11b81525f60048201526024015b60405180910390fd5b5f6104f5838333610fa2565b9050836001600160a01b0316816001600160a01b031614610543576040516364283d7b60e01b81526001600160a01b03808616600483015260248201849052821660448201526064016104e0565b50505050565b610551611094565b600980546001600160a01b0319166001600160a01b0392909216919091179055565b61058d83838360405180602001604052805f815250610c88565b505050565b600a546001600160a01b031633146105bd576040516337f841c560e11b815260040160405180910390fd5b6105c8816007541190565b6105e85760405163c927e5bf60e01b8152600481018290526024016104e0565b5f8181526008602081905260409091208054600160401b900463ffffffff169161061183611b0f565b82546101009290920a63ffffffff8181021990931691831602179091555f83815260086020908152604091829020548251600160201b820485168152600160401b909104909316908301528392507f74209d4994a0e9195d31793fb37ad892582ceb5a3594feb4a454f1ac9e1a214c910160405180910390a250565b5f6103f082610f5d565b5f6001600160a01b0382166106c1576040516322718ad960e21b81525f60048201526024016104e0565b506001600160a01b03165f9081526003602052604090205490565b6106e4611094565b6106ed5f6110c1565b565b60408051610100810182525f80825260208201819052918101829052606081018290526080810182905260a0810182905260c0810182905260e081019190915261073a826007541190565b61075a5760405163c927e5bf60e01b8152600481018390526024016104e0565b5f8281526008602090815260409182902082516101008082018552825460ff8082168452918104821694830194909452620100008404811694820194909452929091606084019163010000009091041660048111156107bb576107bb61183d565b60048111156107cc576107cc61183d565b8152815463ffffffff600160201b820481166020840152600160401b820416604083015260ff600160601b90910416606082015260019091015460809091015292915050565b61081a611094565b600a80546001600160a01b0319166001600160a01b0392909216919091179055565b60606001805461040490611ac3565b600a546001600160a01b03163314610876576040516337f841c560e11b815260040160405180910390fd5b610881816007541190565b6108a15760405163c927e5bf60e01b8152600481018290526024016104e0565b5f8181526008602052604090208054600160201b900463ffffffff168160046108c983611b0f565b91906101000a81548163ffffffff021916908363ffffffff160217905550505f60146005835f0160049054906101000a900463ffffffff1661090b9190611b45565b63ffffffff161161093657815461093190600590600160201b900463ffffffff16611b45565b610939565b60145b825460ff60601b1916600160601b60ff83160217835590505f61095d600483611b67565b610968906002611b88565b83546040805160208101889052600160201b90920460e01b6001600160e01b031916908201524460448201529091505f9060640160408051601f19818403018152919052805160209091012090505f6109c2600383611ba1565b905060ff81161580156109db5750845460c860ff909116105b15610a055784546109f19060ff168460c8611112565b855460ff191660ff91909116178555610a9c565b8060ff166001148015610a225750845460c861010090910460ff16105b15610a58578454610a3d90610100900460ff168460c8611112565b855460ff919091166101000261ff0019909116178555610a9c565b845460c86201000090910460ff161015610a9c578454610a839062010000900460ff168460c8611112565b855460ff91909116620100000262ff0000199091161785555b8454610ab790600590600160201b900463ffffffff16611bb4565b63ffffffff165f03610bbf575f610ad36003600885901c611ba1565b905060ff8116158015610aec5750855460c860ff909116105b15610b20578554610b0c9060ff16610b05866001611b88565b60c8611112565b865460ff191660ff91909116178655610bbd565b8060ff166001148015610b3d5750855460c861010090910460ff16105b15610b76578554610b5b90610100900460ff16610b05866001611b88565b865460ff919091166101000261ff0019909116178655610bbd565b855460c86201000090910460ff161015610bbd578554610ba49062010000900460ff16610b05866001611b88565b865460ff91909116620100000262ff0000199091161786555b505b84546040805160ff8084168252610100840481166020830152620100008404811682840152600160601b90930490921660608301525187917f1bfc8101c63e7a530a3e1d7e3efda6f27ef6b75fd376107a9460205bf84c4cc5919081900360800190a284546040805163ffffffff600160201b840481168252600160401b909304909216602083015287917f74209d4994a0e9195d31793fb37ad892582ceb5a3594feb4a454f1ac9e1a214c910160405180910390a2505050505050565b6104b733838361114b565b610c938484846104bb565b6105433385858585611212565b6060610cad826007541190565b610ccd5760405163c927e5bf60e01b8152600481018390526024016104e0565b600b610cd88361133a565b604051602001610ce9929190611bf1565b6040516020818303038152906040529050919050565b6009545f906001600160a01b03163314610d2c57604051639cdc2ed560e01b815260040160405180910390fd5b60078054905f610d3b83611cae565b919050559050610d4b86826113ca565b6040518061010001604052808660ff1681526020018560ff1681526020018460ff168152602001836004811115610d8457610d8461183d565b81525f60208083018290526040808401839052606080850184905242608090950194909452858352600882529182902084518154928601519386015160ff908116620100000262ff0000199582166101000261ffff19909516929091169190911792909217928316821781559284015191839163ff000000191663ffff000019909116176301000000836004811115610e1f57610e1f61183d565b02179055506080820151815460a084015160c08501516bffffffffffffffff0000000019909216600160201b63ffffffff948516026bffffffff0000000000000000191617600160401b93909116929092029190911760ff60601b1916600160601b60ff9092169190910217815560e0909101516001909101555f8181526008602052604090819020905182916001600160a01b038916917f41089fd1012c3df7225d07ccbe374d02c2f90997e5f73bef401b5da864962b3b91610ee291611cc6565b60405180910390a395945050505050565b6001600160a01b039182165f90815260056020908152604080832093909416825291909152205460ff1690565b610f28611094565b6001600160a01b038116610f5157604051631e4fbdf760e01b81525f60048201526024016104e0565b610f5a816110c1565b50565b5f818152600260205260408120546001600160a01b0316806103f057604051637e27328960e01b8152600481018490526024016104e0565b61058d83838360016113e3565b5f828152600260205260408120546001600160a01b0390811690831615610fce57610fce8184866114e7565b6001600160a01b0381161561100857610fe95f855f806113e3565b6001600160a01b0381165f90815260036020526040902080545f190190555b6001600160a01b03851615611036576001600160a01b0385165f908152600360205260409020805460010190555b5f8481526002602052604080822080546001600160a01b0319166001600160a01b0389811691821790925591518793918516917fddf252ad1be2c89b69c2b068fc378daa952ba7f163c4a11628f55a4df523b3ef91a4949350505050565b6006546001600160a01b031633146106ed5760405163118cdaa760e01b81523360048201526024016104e0565b600680546001600160a01b038381166001600160a01b0319831681179093556040519116919082907f8be0079c531659141344cd1fd0a4f28419497f9722a3daafe3b4186f6b6457e0905f90a35050565b5f8160ff168360ff168560ff166111299190611d37565b61ffff16116111415761113c8385611b88565b611143565b815b949350505050565b6001600160a01b0383166111745760405163a9fbf51f60e01b81525f60048201526024016104e0565b6001600160a01b0382166111a657604051630b61174360e31b81526001600160a01b03831660048201526024016104e0565b6001600160a01b038381165f81815260056020908152604080832094871680845294825291829020805460ff191686151590811790915591519182527f17307eab39ab6107e8899845ad3d59bd9653f200f220920489ca2b5937696c31910160405180910390a3505050565b6001600160a01b0383163b1561133357604051630a85bd0160e11b81526001600160a01b0384169063150b7a0290611254908890889087908790600401611d59565b6020604051808303815f875af192505050801561128e575060408051601f3d908101601f1916820190925261128b91810190611d95565b60015b6112f5573d8080156112bb576040519150601f19603f3d011682016040523d82523d5f602084013e6112c0565b606091505b5080515f036112ed57604051633250574960e11b81526001600160a01b03851660048201526024016104e0565b805160208201fd5b6001600160e01b03198116630a85bd0160e11b1461133157604051633250574960e11b81526001600160a01b03851660048201526024016104e0565b505b5050505050565b60605f6113468361154b565b60010190505f8167ffffffffffffffff81111561136557611365611931565b6040519080825280601f01601f19166020018201604052801561138f576020820181803683370190505b5090508181016020015b5f19016f181899199a1a9b1b9c1cb0b131b232b360811b600a86061a8153600a850494508461139957509392505050565b6104b7828260405180602001604052805f815250611622565b80806113f757506001600160a01b03821615155b156114b8575f61140684610f5d565b90506001600160a01b038316158015906114325750826001600160a01b0316816001600160a01b031614155b801561144557506114438184610ef3565b155b1561146e5760405163a9fbf51f60e01b81526001600160a01b03841660048201526024016104e0565b81156114b65783856001600160a01b0316826001600160a01b03167f8c5be1e5ebec7d5bd14f71427d1e84f3dd0314c0f7b2291e5b200ac8c7c3b92560405160405180910390a45b505b50505f90815260046020526040902080546001600160a01b0319166001600160a01b0392909216919091179055565b6114f2838383611639565b61058d576001600160a01b03831661152057604051637e27328960e01b8152600481018290526024016104e0565b60405163177e802f60e01b81526001600160a01b0383166004820152602481018290526044016104e0565b5f8072184f03e93ff9f4daa797ed6e38ed64bf6a1f0160401b83106115895772184f03e93ff9f4daa797ed6e38ed64bf6a1f0160401b830492506040015b6d04ee2d6d415b85acef810000000083106115b5576d04ee2d6d415b85acef8100000000830492506020015b662386f26fc1000083106115d357662386f26fc10000830492506010015b6305f5e10083106115eb576305f5e100830492506008015b61271083106115ff57612710830492506004015b60648310611611576064830492506002015b600a83106103f05760010192915050565b61162c838361169a565b61058d335f858585611212565b5f6001600160a01b038316158015906111435750826001600160a01b0316846001600160a01b0316148061167257506116728484610ef3565b806111435750505f908152600460205260409020546001600160a01b03908116911614919050565b6001600160a01b0382166116c357604051633250574960e11b81525f60048201526024016104e0565b5f6116cf83835f610fa2565b90506001600160a01b0381161561058d576040516339e3563760e11b81525f60048201526024016104e0565b6001600160e01b031981168114610f5a575f80fd5b5f60208284031215611720575f80fd5b813561172b816116fb565b9392505050565b5f5b8381101561174c578181015183820152602001611734565b50505f910152565b5f815180845261176b816020860160208601611732565b601f01601f19169290920160200192915050565b602081525f61172b6020830184611754565b5f602082840312156117a1575f80fd5b5035919050565b80356001600160a01b03811681146117be575f80fd5b919050565b5f80604083850312156117d4575f80fd5b6117dd836117a8565b946020939093013593505050565b5f805f606084860312156117fd575f80fd5b611806846117a8565b9250611814602085016117a8565b9150604084013590509250925092565b5f60208284031215611834575f80fd5b61172b826117a8565b634e487b7160e01b5f52602160045260245ffd5b6005811061186d57634e487b7160e01b5f52602160045260245ffd5b9052565b5f6101008201905060ff835116825260ff602084015116602083015260ff604084015116604083015260608301516118ac6060840182611851565b5063ffffffff608084015116608083015260a08301516118d460a084018263ffffffff169052565b5060c08301516118e960c084018260ff169052565b5060e092830151919092015290565b5f8060408385031215611909575f80fd5b611912836117a8565b915060208301358015158114611926575f80fd5b809150509250929050565b634e487b7160e01b5f52604160045260245ffd5b5f805f8060808587031215611958575f80fd5b611961856117a8565b935061196f602086016117a8565b925060408501359150606085013567ffffffffffffffff80821115611992575f80fd5b818701915087601f8301126119a5575f80fd5b8135818111156119b7576119b7611931565b604051601f8201601f19908116603f011681019083821181831017156119df576119df611931565b816040528281528a60208487010111156119f7575f80fd5b826020860160208301375f60208483010152809550505050505092959194509250565b803560ff811681146117be575f80fd5b5f805f805f60a08688031215611a3e575f80fd5b611a47866117a8565b9450611a5560208701611a1a565b9350611a6360408701611a1a565b9250611a7160608701611a1a565b9150608086013560058110611a84575f80fd5b809150509295509295909350565b5f8060408385031215611aa3575f80fd5b611aac836117a8565b9150611aba602084016117a8565b90509250929050565b600181811c90821680611ad757607f821691505b602082108103611af557634e487b7160e01b5f52602260045260245ffd5b50919050565b634e487b7160e01b5f52601160045260245ffd5b5f63ffffffff808316818103611b2757611b27611afb565b6001019392505050565b634e487b7160e01b5f52601260045260245ffd5b5f63ffffffff80841680611b5b57611b5b611b31565b92169190910492915050565b5f60ff831680611b7957611b79611b31565b8060ff84160491505092915050565b60ff81811683821601908111156103f0576103f0611afb565b5f82611baf57611baf611b31565b500690565b5f63ffffffff80841680611bca57611bca611b31565b92169190910692915050565b5f8151611be7818560208601611732565b9290920192915050565b5f8084545f60018260011c91506001831680611c0e57607f831692505b60208084108203611c2d57634e487b7160e01b5f52602260045260245ffd5b818015611c415760018114611c5657611c81565b60ff1986168952841515850289019650611c81565b5f8b8152602090205f5b86811015611c795781548b820152908501908301611c60565b505084890196505b505050505050611ca5611c948286611bd6565b64173539b7b760d91b815260050190565b95945050505050565b5f60018201611cbf57611cbf611afb565b5060010190565b815460ff8082168352600882901c166020830152610100820190601081901c60ff166040840152611d006060840160ff8360181c16611851565b63ffffffff602082901c81166080850152604082901c1660a084015260601c60ff1660c08301526001929092015460e09091015290565b61ffff818116838216019080821115611d5257611d52611afb565b5092915050565b6001600160a01b03858116825284166020820152604081018390526080606082018190525f90611d8b90830184611754565b9695505050505050565b5f60208284031215611da5575f80fd5b815161172b816116fb56fea26469706673582212203f8bbfd4997fbae46037d1a9745a03e4abe7386af446b90467ed270cdd02a2c064736f6c63430008180033","linkReferences":{}},"methodIdentifiers":{"STAT_CAP()":"7d07514b","approve(address,uint256)":"095ea7b3","balanceOf(address)":"70a08231","battleEngineContract()":"8f8b16a6","getApproved(uint256)":"081812fc","getStats(uint256)":"7b303965","isApprovedForAll(address,address)":"e985e9c5","mintCard(address,uint8,uint8,uint8,uint8)":"e65ef802","minterContract()":"92f00233","name()":"06fdde03","owner()":"8da5cb5b","ownerOf(uint256)":"6352211e","recordLoss(uint256)":"6022743e","recordWin(uint256)":"9e6611a5","renounceOwnership()":"715018a6","safeTransferFrom(address,address,uint256)":"42842e0e","safeTransferFrom(address,address,uint256,bytes)":"b88d4fde","setApprovalForAll(address,bool)":"a22cb465","setBattleEngineContract(address)":"7eb78dfa","setMinterContract(address)":"38478ae7","supportsInterface(bytes4)":"01ffc9a7","symbol()":"95d89b41","tokenURI(uint256)":"c87b56dd","totalSupply()":"18160ddd","transferFrom(address,address,uint256)":"23b872dd","transferOwnership(address)":"f2fde38b"},"id":39}