{"abi":[{"type":"constructor","inputs":[{"name":"baseURI","type":"string","internalType":"string"}],"stateMutability":"nonpayable"},{"type":"function","name":"approve","inputs":[{"name":"to","type":"address","internalType":"address"},{"name":"tokenId","type":"uint256","internalType":"uint256"}],"outputs":[],"stateMutability":"nonpayable"},{"type":"function","name":"balanceOf","inputs":[{"name":"owner","type":"address","internalType":"address"}],"outputs":[{"name":"","type":"uint256","internalType":"uint256"}],"stateMutability":"view"},{"type":"function","name":"battleEngineContract","inputs":[],"outputs":[{"name":"","type":"address","internalType":"address"}],"stateMutability":"view"},{"type":"function","name":"getApproved","inputs":[{"name":"tokenId","type":"uint256","internalType":"uint256"}],"outputs":[{"name":"","type":"address","internalType":"address"}],"stateMutability":"view"},{"type":"function","name":"getStats","inputs":[{"name":"tokenId","type":"uint256","internalType":"uint256"}],"outputs":[{"name":"","type":"tuple","internalType":"struct CardStats","components":[{"name":"attack","type":"uint8","internalType":"uint8"},{"name":"health","type":"uint8","internalType":"uint8"},{"name":"speed","type":"uint8","internalType":"uint8"},{"name":"abilityType","type":"uint8","internalType":"enum AbilityType"},{"name":"wins","type":"uint32","internalType":"uint32"},{"name":"losses","type":"uint32","internalType":"uint32"},{"name":"mintedAt","type":"uint256","internalType":"uint256"}]}],"stateMutability":"view"},{"type":"function","name":"isApprovedForAll","inputs":[{"name":"owner","type":"address","internalType":"address"},{"name":"operator","type":"address","internalType":"address"}],"outputs":[{"name":"","type":"bool","internalType":"bool"}],"stateMutability":"view"},{"type":"function","name":"mintCard","inputs":[{"name":"to","type":"address","internalType":"address"},{"name":"attack","type":"uint8","internalType":"uint8"},{"name":"health","type":"uint8","internalType":"uint8"},{"name":"speed","type":"uint8","internalType":"uint8"},{"name":"abilityType","type":"uint8","internalType":"enum AbilityType"}],"outputs":[{"name":"tokenId","type":"uint256","internalType":"uint256"}],"stateMutability":"nonpayable"},{"type":"function","name":"minterContract","inputs":[],"outputs":[{"name":"","type":"address","internalType":"address"}],"stateMutability":"view"},{"type":"function","name":"name","inputs":[],"outputs":[{"name":"","type":"string","internalType":"string"}],"stateMutability":"view"},{"type":"function","name":"owner","inputs":[],"outputs":[{"name":"","type":"address","internalType":"address"}],"stateMutability":"view"},{"type":"function","name":"ownerOf","inputs":[{"name":"tokenId","type":"uint256","internalType":"uint256"}],"outputs":[{"name":"","type":"address","internalType":"address"}],"stateMutability":"view"},{"type":"function","name":"recordLoss","inputs":[{"name":"tokenId","type":"uint256","internalType":"uint256"}],"outputs":[],"stateMutability":"nonpayable"},{"type":"function","name":"recordWin","inputs":[{"name":"tokenId","type":"uint256","internalType":"uint256"}],"outputs":[],"stateMutability":"nonpayable"},{"type":"function","name":"renounceOwnership","inputs":[],"outputs":[],"stateMutability":"nonpayable"},{"type":"function","name":"safeTransferFrom","inputs":[{"name":"from","type":"address","internalType":"address"},{"name":"to","type":"address","internalType":"address"},{"name":"tokenId","type":"uint256","internalType":"uint256"}],"outputs":[],"stateMutability":"nonpayable"},{"type":"function","name":"safeTransferFrom","inputs":[{"name":"from","type":"address","internalType":"address"},{"name":"to","type":"address","internalType":"address"},{"name":"tokenId","type":"uint256","internalType":"uint256"},{"name":"data","type":"bytes","internalType":"bytes"}],"outputs":[],"stateMutability":"nonpayable"},{"type":"function","name":"setApprovalForAll","inputs":[{"name":"operator","type":"address","internalType":"address"},{"name":"approved","type":"bool","internalType":"bool"}],"outputs":[],"stateMutability":"nonpayable"},{"type":"function","name":"setBattleEngineContract","inputs":[{"name":"engine","type":"address","internalType":"address"}],"outputs":[],"stateMutability":"nonpayable"},{"type":"function","name":"setMinterContract","inputs":[{"name":"minter","type":"address","internalType":"address"}],"outputs":[],"stateMutability":"nonpayable"},{"type":"function","name":"supportsInterface","inputs":[{"name":"interfaceId","type":"bytes4","internalType":"bytes4"}],"outputs":[{"name":"","type":"bool","internalType":"bool"}],"stateMutability":"view"},{"type":"function","name":"symbol","inputs":[],"outputs":[{"name":"","type":"string","internalType":"string"}],"stateMutability":"view"},{"type":"function","name":"tokenURI","inputs":[{"name":"tokenId","type":"uint256","internalType":"uint256"}],"outputs":[{"name":"","type":"string","internalType":"string"}],"stateMutability":"view"},{"type":"function","name":"totalSupply","inputs":[],"outputs":[{"name":"","type":"uint256","internalType":"uint256"}],"stateMutability":"view"},{"type":"function","name":"transferFrom","inputs":[{"name":"from","type":"address","internalType":"address"},{"name":"to","type":"address","internalType":"address"},{"name":"tokenId","type":"uint256","internalType":"uint256"}],"outputs":[],"stateMutability":"nonpayable"},{"type":"function","name":"transferOwnership","inputs":[{"name":"newOwner","type":"address","internalType":"address"}],"outputs":[],"stateMutability":"nonpayable"},{"type":"event","name":"Approval","inputs":[{"name":"owner","type":"address","indexed":true,"internalType":"address"},{"name":"approved","type":"address","indexed":true,"internalType":"address"},{"name":"tokenId","type":"uint256","indexed":true,"internalType":"uint256"}],"anonymous":false},{"type":"event","name":"ApprovalForAll","inputs":[{"name":"owner","type":"address","indexed":true,"internalType":"address"},{"name":"operator","type":"address","indexed":true,"internalType":"address"},{"name":"approved","type":"bool","indexed":false,"internalType":"bool"}],"anonymous":false},{"type":"event","name":"CardMinted","inputs":[{"name":"to","type":"address","indexed":true,"internalType":"address"},{"name":"tokenId","type":"uint256","indexed":true,"internalType":"uint256"},{"name":"stats","type":"tuple","indexed":false,"internalType":"struct CardStats","components":[{"name":"attack","type":"uint8","internalType":"uint8"},{"name":"health","type":"uint8","internalType":"uint8"},{"name":"speed","type":"uint8","internalType":"uint8"},{"name":"abilityType","type":"uint8","internalType":"enum AbilityType"},{"name":"wins","type":"uint32","internalType":"uint32"},{"name":"losses","type":"uint32","internalType":"uint32"},{"name":"mintedAt","type":"uint256","internalType":"uint256"}]}],"anonymous":false},{"type":"event","name":"OwnershipTransferred","inputs":[{"name":"previousOwner","type":"address","indexed":true,"internalType":"address"},{"name":"newOwner","type":"address","indexed":true,"internalType":"address"}],"anonymous":false},{"type":"event","name":"StatsUpdated","inputs":[{"name":"tokenId","type":"uint256","indexed":true,"internalType":"uint256"},{"name":"wins","type":"uint32","indexed":false,"internalType":"uint32"},{"name":"losses","type":"uint32","indexed":false,"internalType":"uint32"}],"anonymous":false},{"type":"event","name":"Transfer","inputs":[{"name":"from","type":"address","indexed":true,"internalType":"address"},{"name":"to","type":"address","indexed":true,"internalType":"address"},{"name":"tokenId","type":"uint256","indexed":true,"internalType":"uint256"}],"anonymous":false},{"type":"error","name":"ERC721IncorrectOwner","inputs":[{"name":"sender","type":"address","internalType":"address"},{"name":"tokenId","type":"uint256","internalType":"uint256"},{"name":"owner","type":"address","internalType":"address"}]},{"type":"error","name":"ERC721InsufficientApproval","inputs":[{"name":"operator","type":"address","internalType":"address"},{"name":"tokenId","type":"uint256","internalType":"uint256"}]},{"type":"error","name":"ERC721InvalidApprover","inputs":[{"name":"approver","type":"address","internalType":"address"}]},{"type":"error","name":"ERC721InvalidOperator","inputs":[{"name":"operator","type":"address","internalType":"address"}]},{"type":"error","name":"ERC721InvalidOwner","inputs":[{"name":"owner","type":"address","internalType":"address"}]},{"type":"error","name":"ERC721InvalidReceiver","inputs":[{"name":"receiver","type":"address","internalType":"address"}]},{"type":"error","name":"ERC721InvalidSender","inputs":[{"name":"sender","type":"address","internalType":"address"}]},{"type":"error","name":"ERC721NonexistentToken","inputs":[{"name":"tokenId","type":"uint256","internalType":"uint256"}]},{"type":"error","name":"OnlyBattleEngine","inputs":[]},{"type":"error","name":"OnlyMinter","inputs":[]},{"type":"error","name":"OwnableInvalidOwner","inputs":[{"name":"owner","type":"address","internalType":"address"}]},{"type":"error","name":"OwnableUnauthorizedAccount","inputs":[{"name":"account","type":"address","internalType":"address"}]},{"type":"error","name":"TokenDoesNotExist","inputs":[{"name":"tokenId","type":"uint256","internalType":"uint256"}]}],"bytecode":{"object":"0x608060405234801562000010575f80fd5b5060405162001c1638038062001c1683398101604081905262000033916200014d565b336040518060400160405280600c81526020016b10dc99585d1d5c9950d85c9960a21b8152506040518060400160405280600481526020016321a92a2960e11b815250815f9081620000869190620002a5565b506001620000958282620002a5565b5050506001600160a01b038116620000c657604051631e4fbdf760e01b81525f600482015260240160405180910390fd5b620000d181620000e8565b50600b620000e08282620002a5565b505062000371565b600680546001600160a01b038381166001600160a01b0319831681179093556040519116919082907f8be0079c531659141344cd1fd0a4f28419497f9722a3daafe3b4186f6b6457e0905f90a35050565b634e487b7160e01b5f52604160045260245ffd5b5f60208083850312156200015f575f80fd5b82516001600160401b038082111562000176575f80fd5b818501915085601f8301126200018a575f80fd5b8151818111156200019f576200019f62000139565b604051601f8201601f19908116603f01168101908382118183101715620001ca57620001ca62000139565b816040528281528886848701011115620001e2575f80fd5b5f93505b82841015620002055784840186015181850187015292850192620001e6565b5f86848301015280965050505050505092915050565b600181811c908216806200023057607f821691505b6020821081036200024f57634e487b7160e01b5f52602260045260245ffd5b50919050565b601f821115620002a057805f5260205f20601f840160051c810160208510156200027c5750805b601f840160051c820191505b818110156200029d575f815560010162000288565b50505b505050565b81516001600160401b03811115620002c157620002c162000139565b620002d981620002d284546200021b565b8462000255565b602080601f8311600181146200030f575f8415620002f75750858301515b5f19600386901b1c1916600185901b17855562000369565b5f85815260208120601f198616915b828110156200033f578886015182559484019460019091019084016200031e565b50858210156200035d57878501515f19600388901b60f8161c191681555b505060018460011b0185555b505050505050565b611897806200037f5f395ff3fe608060405234801561000f575f80fd5b506004361061016d575f3560e01c80637b303965116100d95780639e6611a511610093578063c87b56dd1161006e578063c87b56dd14610325578063e65ef80214610338578063e985e9c51461034b578063f2fde38b1461035e575f80fd5b80639e6611a5146102ec578063a22cb465146102ff578063b88d4fde14610312575f80fd5b80637b3039651461027a5780637eb78dfa1461029a5780638da5cb5b146102ad5780638f8b16a6146102be57806392f00233146102d157806395d89b41146102e4575f80fd5b806338478ae71161012a57806338478ae71461021357806342842e0e146102265780636022743e146102395780636352211e1461024c57806370a082311461025f578063715018a614610272575f80fd5b806301ffc9a71461017157806306fdde0314610199578063081812fc146101ae578063095ea7b3146101d957806318160ddd146101ee57806323b872dd14610200575b5f80fd5b61018461017f3660046112ae565b610371565b60405190151581526020015b60405180910390f35b6101a16103c2565b604051610190919061131d565b6101c16101bc36600461132f565b610451565b6040516001600160a01b039091168152602001610190565b6101ec6101e7366004611361565b610478565b005b6007545b604051908152602001610190565b6101ec61020e366004611389565b610487565b6101ec6102213660046113c2565b610515565b6101ec610234366004611389565b61053f565b6101ec61024736600461132f565b61055e565b6101c161025a36600461132f565b61065a565b6101f261026d3660046113c2565b610664565b6101ec6106a9565b61028d61028836600461132f565b6106bc565b604051610190919061140f565b6101ec6102a83660046113c2565b6107c8565b6006546001600160a01b03166101c1565b600a546101c1906001600160a01b031681565b6009546101c1906001600160a01b031681565b6101a16107f2565b6101ec6102fa36600461132f565b610801565b6101ec61030d36600461147a565b610880565b6101ec6103203660046114c7565b61088b565b6101a161033336600461132f565b6108a3565b6101f26103463660046115ac565b610902565b610184610359366004611614565b610ac7565b6101ec61036c3660046113c2565b610af4565b5f6001600160e01b031982166380ac58cd60e01b14806103a157506001600160e01b03198216635b5e139f60e01b145b806103bc57506301ffc9a760e01b6001600160e01b03198316145b92915050565b60605f80546103d090611645565b80601f01602080910402602001604051908101604052809291908181526020018280546103fc90611645565b80156104475780601f1061041e57610100808354040283529160200191610447565b820191905f5260205f20905b81548152906001019060200180831161042a57829003601f168201915b5050505050905090565b5f61045b82610b31565b505f828152600460205260409020546001600160a01b03166103bc565b610483828233610b69565b5050565b6001600160a01b0382166104b557604051633250574960e11b81525f60048201526024015b60405180910390fd5b5f6104c1838333610b76565b9050836001600160a01b0316816001600160a01b03161461050f576040516364283d7b60e01b81526001600160a01b03808616600483015260248201849052821660448201526064016104ac565b50505050565b61051d610c68565b600980546001600160a01b0319166001600160a01b0392909216919091179055565b61055983838360405180602001604052805f81525061088b565b505050565b600a546001600160a01b03163314610589576040516337f841c560e11b815260040160405180910390fd5b610594816007541190565b6105b45760405163c927e5bf60e01b8152600481018290526024016104ac565b5f8181526008602081905260409091208054600160401b900463ffffffff16916105dd83611691565b82546101009290920a63ffffffff8181021990931691831602179091555f83815260086020908152604091829020548251640100000000820485168152600160401b909104909316908301528392507f74209d4994a0e9195d31793fb37ad892582ceb5a3594feb4a454f1ac9e1a214c910160405180910390a250565b5f6103bc82610b31565b5f6001600160a01b03821661068e576040516322718ad960e21b81525f60048201526024016104ac565b506001600160a01b03165f9081526003602052604090205490565b6106b1610c68565b6106ba5f610c95565b565b6040805160e0810182525f80825260208201819052918101829052606081018290526080810182905260a0810182905260c08101919091526106ff826007541190565b61071f5760405163c927e5bf60e01b8152600481018390526024016104ac565b5f82815260086020908152604091829020825160e081018452815460ff8082168352610100820481169483019490945262010000810484169482019490945292909160608401916301000000900416600481111561077f5761077f6113db565b6004811115610790576107906113db565b8152815463ffffffff640100000000820481166020840152600160401b90910416604082015260019091015460609091015292915050565b6107d0610c68565b600a80546001600160a01b0319166001600160a01b0392909216919091179055565b6060600180546103d090611645565b600a546001600160a01b0316331461082c576040516337f841c560e11b815260040160405180910390fd5b610837816007541190565b6108575760405163c927e5bf60e01b8152600481018290526024016104ac565b5f8181526008602052604090208054640100000000900463ffffffff169060046105dd83611691565b610483338383610ce6565b610896848484610487565b61050f3385858585610dad565b60606108b0826007541190565b6108d05760405163c927e5bf60e01b8152600481018390526024016104ac565b600b6108db83610ed5565b6040516020016108ec9291906116ce565b6040516020818303038152906040529050919050565b6009545f906001600160a01b0316331461092f57604051639cdc2ed560e01b815260040160405180910390fd5b60078054905f61093e8361178b565b91905055905061094e8682610f65565b6040518060e001604052808660ff1681526020018560ff1681526020018460ff168152602001836004811115610986576109866113db565b81525f6020808301829052604080840183905242606094850152858352600882529182902084518154928601519386015160ff908116620100000262ff0000199582166101000261ffff19909516919092161792909217928316821781559284015191839163ff000000191663ffff000019909116176301000000836004811115610a1357610a136113db565b02179055506080820151815460a084015163ffffffff908116600160401b026bffffffff0000000000000000199190931664010000000002166bffffffffffffffff00000000199091161717815560c0909101516001909101555f8181526008602052604090819020905182916001600160a01b038916917f33d524f5ab30ec26c8df16150d6f5bab0cbbe94cbe59556e1e1061539fadc93291610ab6916117a3565b60405180910390a395945050505050565b6001600160a01b039182165f90815260056020908152604080832093909416825291909152205460ff1690565b610afc610c68565b6001600160a01b038116610b2557604051631e4fbdf760e01b81525f60048201526024016104ac565b610b2e81610c95565b50565b5f818152600260205260408120546001600160a01b0316806103bc57604051637e27328960e01b8152600481018490526024016104ac565b6105598383836001610f7e565b5f828152600260205260408120546001600160a01b0390811690831615610ba257610ba2818486611082565b6001600160a01b03811615610bdc57610bbd5f855f80610f7e565b6001600160a01b0381165f90815260036020526040902080545f190190555b6001600160a01b03851615610c0a576001600160a01b0385165f908152600360205260409020805460010190555b5f8481526002602052604080822080546001600160a01b0319166001600160a01b0389811691821790925591518793918516917fddf252ad1be2c89b69c2b068fc378daa952ba7f163c4a11628f55a4df523b3ef91a4949350505050565b6006546001600160a01b031633146106ba5760405163118cdaa760e01b81523360048201526024016104ac565b600680546001600160a01b038381166001600160a01b0319831681179093556040519116919082907f8be0079c531659141344cd1fd0a4f28419497f9722a3daafe3b4186f6b6457e0905f90a35050565b6001600160a01b038316610d0f5760405163a9fbf51f60e01b81525f60048201526024016104ac565b6001600160a01b038216610d4157604051630b61174360e31b81526001600160a01b03831660048201526024016104ac565b6001600160a01b038381165f81815260056020908152604080832094871680845294825291829020805460ff191686151590811790915591519182527f17307eab39ab6107e8899845ad3d59bd9653f200f220920489ca2b5937696c31910160405180910390a3505050565b6001600160a01b0383163b15610ece57604051630a85bd0160e11b81526001600160a01b0384169063150b7a0290610def90889088908790879060040161180a565b6020604051808303815f875af1925050508015610e29575060408051601f3d908101601f19168201909252610e2691810190611846565b60015b610e90573d808015610e56576040519150601f19603f3d011682016040523d82523d5f602084013e610e5b565b606091505b5080515f03610e8857604051633250574960e11b81526001600160a01b03851660048201526024016104ac565b805160208201fd5b6001600160e01b03198116630a85bd0160e11b14610ecc57604051633250574960e11b81526001600160a01b03851660048201526024016104ac565b505b5050505050565b60605f610ee1836110e6565b60010190505f8167ffffffffffffffff811115610f0057610f006114b3565b6040519080825280601f01601f191660200182016040528015610f2a576020820181803683370190505b5090508181016020015b5f19016f181899199a1a9b1b9c1cb0b131b232b360811b600a86061a8153600a8504945084610f3457509392505050565b610483828260405180602001604052805f8152506111bd565b8080610f9257506001600160a01b03821615155b15611053575f610fa184610b31565b90506001600160a01b03831615801590610fcd5750826001600160a01b0316816001600160a01b031614155b8015610fe05750610fde8184610ac7565b155b156110095760405163a9fbf51f60e01b81526001600160a01b03841660048201526024016104ac565b81156110515783856001600160a01b0316826001600160a01b03167f8c5be1e5ebec7d5bd14f71427d1e84f3dd0314c0f7b2291e5b200ac8c7c3b92560405160405180910390a45b505b50505f90815260046020526040902080546001600160a01b0319166001600160a01b0392909216919091179055565b61108d8383836111d4565b610559576001600160a01b0383166110bb57604051637e27328960e01b8152600481018290526024016104ac565b60405163177e802f60e01b81526001600160a01b0383166004820152602481018290526044016104ac565b5f8072184f03e93ff9f4daa797ed6e38ed64bf6a1f0160401b83106111245772184f03e93ff9f4daa797ed6e38ed64bf6a1f0160401b830492506040015b6d04ee2d6d415b85acef81000000008310611150576d04ee2d6d415b85acef8100000000830492506020015b662386f26fc10000831061116e57662386f26fc10000830492506010015b6305f5e1008310611186576305f5e100830492506008015b612710831061119a57612710830492506004015b606483106111ac576064830492506002015b600a83106103bc5760010192915050565b6111c78383611238565b610559335f858585610dad565b5f6001600160a01b038316158015906112305750826001600160a01b0316846001600160a01b0316148061120d575061120d8484610ac7565b8061123057505f828152600460205260409020546001600160a01b038481169116145b949350505050565b6001600160a01b03821661126157604051633250574960e11b81525f60048201526024016104ac565b5f61126d83835f610b76565b90506001600160a01b03811615610559576040516339e3563760e11b81525f60048201526024016104ac565b6001600160e01b031981168114610b2e575f80fd5b5f602082840312156112be575f80fd5b81356112c981611299565b9392505050565b5f5b838110156112ea5781810151838201526020016112d2565b50505f910152565b5f81518084526113098160208601602086016112d0565b601f01601f19169290920160200192915050565b602081525f6112c960208301846112f2565b5f6020828403121561133f575f80fd5b5035919050565b80356001600160a01b038116811461135c575f80fd5b919050565b5f8060408385031215611372575f80fd5b61137b83611346565b946020939093013593505050565b5f805f6060848603121561139b575f80fd5b6113a484611346565b92506113b260208501611346565b9150604084013590509250925092565b5f602082840312156113d2575f80fd5b6112c982611346565b634e487b7160e01b5f52602160045260245ffd5b6005811061140b57634e487b7160e01b5f52602160045260245ffd5b9052565b5f60e08201905060ff835116825260ff602084015116602083015260ff6040840151166040830152606083015161144960608401826113ef565b50608083015163ffffffff80821660808501528060a08601511660a0850152505060c083015160c083015292915050565b5f806040838503121561148b575f80fd5b61149483611346565b9150602083013580151581146114a8575f80fd5b809150509250929050565b634e487b7160e01b5f52604160045260245ffd5b5f805f80608085870312156114da575f80fd5b6114e385611346565b93506114f160208601611346565b925060408501359150606085013567ffffffffffffffff80821115611514575f80fd5b818701915087601f830112611527575f80fd5b813581811115611539576115396114b3565b604051601f8201601f19908116603f01168101908382118183101715611561576115616114b3565b816040528281528a6020848701011115611579575f80fd5b826020860160208301375f60208483010152809550505050505092959194509250565b803560ff8116811461135c575f80fd5b5f805f805f60a086880312156115c0575f80fd5b6115c986611346565b94506115d76020870161159c565b93506115e56040870161159c565b92506115f36060870161159c565b9150608086013560058110611606575f80fd5b809150509295509295909350565b5f8060408385031215611625575f80fd5b61162e83611346565b915061163c60208401611346565b90509250929050565b600181811c9082168061165957607f821691505b60208210810361167757634e487b7160e01b5f52602260045260245ffd5b50919050565b634e487b7160e01b5f52601160045260245ffd5b5f63ffffffff8083168181036116a9576116a961167d565b6001019392505050565b5f81516116c48185602086016112d0565b9290920192915050565b5f8084545f60018260011c915060018316806116eb57607f831692505b6020808410820361170a57634e487b7160e01b5f52602260045260245ffd5b81801561171e57600181146117335761175e565b60ff198616895284151585028901965061175e565b5f8b8152602090205f5b868110156117565781548b82015290850190830161173d565b505084890196505b50505050505061178261177182866116b3565b64173539b7b760d91b815260050190565b95945050505050565b5f6001820161179c5761179c61167d565b5060010190565b5f60e082019050825460ff8116835260ff8160081c16602084015260ff8160101c1660408401526117dd6060840160ff8360181c166113ef565b63ffffffff808260201c166080850152808260401c1660a08501525050600183015460c083015292915050565b6001600160a01b03858116825284166020820152604081018390526080606082018190525f9061183c908301846112f2565b9695505050505050565b5f60208284031215611856575f80fd5b81516112c98161129956fea26469706673582212204eafaa08a3a4393547d6aa117b1d923d29b14b807b1028c4fa6ad07049ecbc4264736f6c63430008180033","linkReferences":{}},"methodIdentifiers":{"approve(address,uint256)":"095ea7b3","balanceOf(address)":"70a08231","battleEngineContract()":"8f8b16a6","getApproved(uint256)":"081812fc","getStats(uint256)":"7b303965","isApprovedForAll(address,address)":"e985e9c5","mintCard(address,uint8,uint8,uint8,uint8)":"e65ef802","minterContract()":"92f00233","name()":"06fdde03","owner()":"8da5cb5b","ownerOf(uint256)":"6352211e","recordLoss(uint256)":"6022743e","recordWin(uint256)":"9e6611a5","renounceOwnership()":"715018a6","safeTransferFrom(address,address,uint256)":"42842e0e","safeTransferFrom(address,address,uint256,bytes)":"b88d4fde","setApprovalForAll(address,bool)":"a22cb465","setBattleEngineContract(address)":"7eb78dfa","setMinterContract(address)":"38478ae7","supportsInterface(bytes4)":"01ffc9a7","symbol()":"95d89b41","tokenURI(uint256)":"c87b56dd","totalSupply()":"18160ddd","transferFrom(address,address,uint256)":"23b872dd","transferOwnership(address)":"f2fde38b"},"id":39}